:020000040000fa
:020000040040ba
:10000000f8ff4520b5874000dd584000db13410074
:10001000e3134100e7134100eb134100000000002f
:100020000000000000000000000000003108410056
:10003000df1341000000000021e24000fd0041000c
:10004000fd134100fd134100fd134100fd1341006c
:10005000fd134100fd134100fd134100fd1341005c
:10006000fd13410000000000fd134100fd1341009d
:10007000fd134100fd1341005dde4000fd13410012
:10008000fd134100fd134100fd134100fd1341002c
:10009000fd134100fd134100fd13410059074100cc
:1000a000fd134100fd134100fd134100fd1341000c
:1000b000fd134100fd134100fd134100fd134100fc
:1000c000fd134100fd134100fd134100fd134100ec
:1000d000fd134100fd134100fd134100edd640002a
:1000e000fd134100fd134100fd134100fd134100cc
:1000f000fd134100fd134100fd134100fd134100bc
:10010000fd134100fd134100fd134100fd134100ab
:10011000fd1341000000000000000000000000008e
:10012000fd134100fd134100fd134100fd1341008b
:10013000fd134100fd13410000000000fd134100cc
:10014000fd134100fd134100fd134100fd1341006b
:10015000fd134100fd134100fd134100fd1341005b
:08016000fd134100fd134100f5
:020000040000fa
:020000040040ba
:10016800f8b500bff8bc08bc9e46704741f5400092
:10017800f8b500bff8bc08bc9e4670471df54000a6
:020000040000fa
:020000040040ba
:080188005067000001000000b7
:020000040000fa
:020000040040ba
:100190002f2f00005b4150505d20444e533a207297
:1001a00065736f6c76696e6720686f73742e2e2e80
:1001b0000a0000005b4442475d205b4150505d20d7
:1001c000444e53207265736f6c76656420746f3a89
:1001d00020000000307800005b4150505d20444e0c
:1001e00053207265736f6c7574696f6e2046414958
:1001f0004c45440a000000005b4150505d204372b2
:10020000656174696e672054435020736f636b653a
:10021000742e2e2e0a0000005b4150505d20736f3b
:10022000636b65742829204641494c45440a000007
:100230005b4442475d205b4150505d20536f636bd0
:10024000657420637265617465642c2066643a206d
:10025000000000005b4442475d205b4150505d2040
:10026000436f6e6e656374696e6720746f20706f84
:1002700072743a20000000005b4442475d205b41fd
:1002800050505d20636f6e6e65637428292072651f
:100290007475726e65643a20000000005b4442474a
:1002a0005d205b4150505d20636f6e6e656374200e
:1002b0006572726e6f3a20005b4150505d20436f53
:1002c0006e6e6563746564204f4b210a0000000068
:1002d0005b4150505d2053656e64696e67204854e1
:1002e0005450204745542e2e2e0a00005b444247ae
:1002f0005d205b4150505d2053656e64206c656edf
:100300006774683a200000005b4442475d205b410f
:1003100050505d2073656e64282920726574757273
:100320006e65643a200000005b4442475d205b41fb
:1003300050505d2073656e64206572726e6f3a2056
:10034000000000005b4150505d2057616974696e88
:100350006720666f7220726573706f6e73652028f8
:1003600072656376292e2e2e0a0000005b415050e4
:100370005d2043616c6c696e672072656376282925
:100380002e2e2e0a000000005b4442475d205b4198
:1003900050505d20726563762829207265747572ed
:1003a0006e65643a200000005b4150505d2072652c
:1003b00063763a20636f6e6e656374696f6e206357
:1003c0006c6f736564206279207365727665720a5a
:1003d000000000005b4442475d205b4150505d20bf
:1003e00072656376206572726f722c206572726e10
:1003f0006f3a20005b4150505d202d2d2d2052651d
:100400006365697665642064617461202d2d2d0a11
:10041000000000000a5b4150505d202d2d2d20452d
:100420006e642064617461202d2d2d0a000000008f
:100430005b4150505d20436c6f73696e6720736f32
:10044000636b65742e2e2e0a000000005b41505035
:100450005d20436f6e6e656374696f6e20436c6fd1
:100460007365640a000000004e6574776f726b203c
:10047000696e74657266616365206c696e6b206974
:10048000732075700d0a00004e6574776f726b20d3
:10049000696e74657266616365206c696e6b206954
:1004a0007320446f776e0d0a000000004950204110
:1004b0006464726573733a2025642e25642e256466
:1004c0002e25640d0a000000436f756c64206e6f6a
:1004d000742070617273652055524c202725732754
:1004e0000d0a0000474554202f25732048545450ce
:1004f0002f312e310d0a486f73743a2025730d0a7f
:10050000436f6e6e656374696f6e3a20636c6f73d0
:10051000650d0a0d0a0000003031323334353637ac
:100520003839414243444546000000005573616735
:10053000653a206f70656e75726c203c75726c3e0a
:100540000d0a000045783a206f70656e75726c2058
:10055000687474703a2f2f7777772e676f6f676c98
:10056000652e636f6d2f0d0a000000003a20617048
:100570007020636f6d6d616e647300006170700058
:100580004661696c656420746f206372656174658f
:1005900020544350495020436f6d6d616e64730d5c
:1005a0000a0000006f70656e75726c003a20436f30
:1005b0006e6e65637420746f20612075726c2061ab
:1005c0006e6420646f206120474554005b444247bd
:1005d0005d203d3d3d205359535f496e697469610b
:1005e0006c697a65205354415254203d3d3d0a00c8
:1005f0005b4442475d205b494e49542d30315d20bc
:100600004546432c20434c4b2c2050494f2c205422
:1006100043302c204253502c20555341525431200a
:10062000646f6e650a0000005b4442475d205b49d1
:100630004e49542d30325d205761746368646f6792
:10064000732064697361626c65640a005b444247ad
:100650005d205b494e49542d30335d205359535f23
:1006600054494d4520696e697469616c697a6564a5
:100670000a0000005b4442475d205b494e49542d0f
:1006800030345d205359535f434f4e534f4c452cec
:10069000205359535f434d442c205359535f4445d5
:1006a00042554720696e697469616c697a65640aac
:1006b000000000005b4442475d205b494e49542dd9
:1006c00030355d2043616c6c696e67206c776970b2
:1006d0005f6e6574776f726b5f696e697428292e1f
:1006e0002e2e0a005b4442475d205b494e49542d43
:1006f00030365d206c7769705f6e6574776f726bf2
:100700005f696e697428292072657475726e6564fc
:10071000204f4b0a000000005b4442475d205b49cc
:100720004e49542d30375d20435259505420696e44
:10073000697469616c697a65640a00005b444247c8
:100740005d205b494e49542d30385d20415050208a
:10075000696e697469616c697a65640a00000000f9
:100760005b4442475d205b494e49542d30395d2042
:100770004e56494320696e697469616c697a656493
:10078000202d205359535f496e697469616c697af1
:100790006520434f4d504c4554450a000d0a2d2d00
:1007a0002d2d2d2d2d20537570706f727465642062
:1007b000636f6d6d616e642067726f757073202d4d
:1007c0002d2d2d2d2d0000000d0a202a2a2a200073
:1007d000202a2a2a000000000d0a2d2d2d2d2d2d56
:1007e0002d2d2d2d204275696c7420696e20636f4c
:1007f0006d6d616e6473202d2d2d2d2d2d2d2d2dc4
:100800002d0000000d0a00000d0a556e6b6e6f770b
:100810006e20636f6d6d616e642067726f75702ef0
:10082000205472792068656c700d0a000820080059
:10083000080000000d0a3e001b5b25644300000019
:100840001b5b2564440000000d0a202a2a2a20513f
:1008500075697474696e672074686520436f6d6d87
:10086000616e642050726f636573736f722e2042e5
:100870007965202a2a2a0d0a000000000d0a202a84
:100880002a2a2053797374656d205265626f6f74e4
:10089000202a2a2a0d0a000020092c004661696cd2
:1008a000656420746f206372656174652074686587
:1008b00020436f6e736f6c65204150490d0a000034
:1008c000202a2a2a20436f6d6d616e642050726f5a
:1008d000636573736f723a20506c65617365207441
:1008e00079706520696e206120636f6d6d616e6443
:1008f0002a2a2a0d0a0000000a0d20546f6f206d6d
:10090000616e7920617267756d656e74732e204d0e
:100910006178696d756d2061726773207375707091
:100920006f727465643a202564210d0a000000008e
:10093000202a2a2a20436f6d6d616e642050726fe9
:10094000636573736f723a20756e6b6e6f776e208e
:10095000636f6d6d616e642e202a2a2a0d0a0000d5
:100960003e000000081b5b4b25731b5b25644400a5
:10097000081b5b4b000000001b5b4b25731b5b25ba
:100980006444000025731b5b25644400202a2a2a46
:1009900020436f6d6d616e642050726f6365737379
:1009a0006f7220627566666572206578636565643e
:1009b00065642e2052657472792e202a2a2a0d0a27
:1009c0000000000072657365740000003a205265f3
:1009d00073657420686f737400000000710000007c
:1009e0003a207175697420636f6d6d616e6420705b
:1009f000726f636573736f720000000068656c70de
:100a0000000000003a2068656c7000001b5b41002c
:100a10001b5b42001b5b43001b5b44001b5b317e86
:100a2000000000001b5b347e000000005359535f40
:100a3000434d445f5441534b530000004150505fbd
:100a40005461736b7300000049444c450000000082
:100a50003230382e36372e3232322e3232320000d9
:100a600074637069705f746872656164000000008f
:100a7000ffffffffffff00005b4442475d205b5428
:100a8000585d205061636b65742073656e742c2013
:100a90006c656e3a200000005b4442475d205b5469
:100aa000585d205453522061667465722073656ee0
:100ab000643a20005b4442475d205b52582d21215f
:100ac0005d20706275665f616c6c6f6320464149a2
:100ad0004c4544206f6e20696e697469616c2070aa
:100ae0006f70756c617465210a0000005b444247b9
:100af0005d205b52582d30315d20496e697469610b
:100b00006c20525820706275667320616c6c6f6344
:100b1000617465643a2000005b4442475d205b528b
:100b2000585d205061636b657420726563656976fa
:100b300065642c206c656e3a200000005b444247df
:100b40005d205b45494e49542d30315d2065746808
:100b500065726e657469665f696e697428292065bf
:100b60006e7465720a0000005b4442475d205b457d
:100b7000494e49542d30325d2043616c6c696e677b
:100b800020676d61635f6c6f775f6c6576656c5f26
:100b9000696e697428292e2e2e0a00005b44424794
:100ba0005d205b474d41432d30315d20676d6163b2
:100bb0005f6c6f775f6c6576656c5f696e697428d2
:100bc0002920656e7465720a000000005b4442478c
:100bd0005d205b474d41432d30325d204469736198
:100be000626c696e672054582f525820616e6420e1
:100bf000696e74657272757074730a005b44424763
:100c00005d205b474d41432d30335d204d414320f6
:100c100061646472657373207365740a0000000078
:100c20005b4442475d205b474d41432d30345d209e
:100c30005374617274696e672050485920696e69f7
:100c40007420616e64206175746f2d6e65676f74ba
:100c5000696174696f6e2e2e2e0a00005b44424754
:100c60005d205b5048592d30315d20456e61626cce
:100c7000696e6720474d4143206d616e6167656d08
:100c8000656e7420706f727420284d5045290a00db
:100c90005b4442475d205b5048592d30325d204d0a
:100ca000444320636c6f636b20646976696465728a
:100cb000207365740a0000005b4442475d205b506e
:100cc00048592d30335d20504859204944313a204d
:100cd000000000005b4442475d205b5048592d30c6
:100ce000345d20504859204944323a200000000029
:100cf0005b4442475d205b5048592d21215d204dca
:100d000044494f20726561642072657475726e7318
:100d100020307846464646202d20504859206e6f98
:100d20007420726573706f6e64696e67210a0000cb
:100d30005b4442475d205b5048592d30355d205261
:100d40006573657474696e67205048592e2e2e0a9b
:100d5000000000005b4442475d205b5048592d3045
:100d6000365d2050485920726573657420636f6d3d
:100d7000706c6574652c204243523a2000000000dc
:100d80005b4442475d205b5048592d30375d20530e
:100d900074617274696e67206175746f2d6e65671a
:100da0006f74696174696f6e2e2e2e0a0000000048
:100db0005b4442475d205b5048592d3037615d20d0
:100dc0005374696c6c2077616974696e672e2e2e7e
:100dd000204253523a2000005b4442475d205b5062
:100de00048592d30385d2042535220616674657237
:100df000206175746f6e65673a2000005b4442475e
:100e00005d205b5048592d21215d204175746f2d67
:100e10006e65676f74696174696f6e2054494d45e2
:100e20004f555420283573290a0000005b4442477f
:100e30005d205b5048592d3038625d20425352206e
:100e40002872652d7265616420666f72206c696e10
:100e50006b293a20000000005b4442475d205b5054
:100e600048592d21215d204c696e6b204e4f542036
:100e70007570202d20636865636b2045746865720a
:100e80006e6574206361626c65210a005b444247b1
:100e90005d205b5048592d30395d204c696e6b20c8
:100ea00069732055500a00005b4442475d205b5047
:100eb00048592d31305d20414e4c50415220286c14
:100ec000696e6b20706172746e6572206162696c0c
:100ed000697479293a2000005b4442475d205b50e9
:100ee00048592d31315d20436f6e666967757265b3
:100ef000643a203130304d6270732046756c6c203e
:100f00004475706c65780a005b4442475d205b5015
:100f100048592d31315d20436f6e66696775726582
:100f2000643a203130304d6270732048616c662025
:100f30004475706c65780a005b4442475d205b50e5
:100f400048592d31315d20436f6e66696775726552
:100f5000643a2031304d6270732046756c6c2044c9
:100f600075706c65780a00005b4442475d205b50f9
:100f700048592d31315d20436f6e66696775726522
:100f8000643a2031304d6270732048616c662044b1
:100f900075706c65780a00005b4442475d205b47d2
:100fa0004d41432d21215d2050485920696e6974bf
:100fb0002f6175746f6e6567204641494c45440a40
:100fc000000000005b4442475d205b474d41432ddc
:100fd00030355d2050485920696e69742f617574f1
:100fe0006f6e6567204f4b0a000000005b4442476c
:100ff0005d205b474d41432d30365d20496e69745d
:1010000069616c697a696e672052582f5458206460
:10101000657363726970746f722072696e67730aa8
:10102000000000005b4442475d205b474d41432d7b
:1010300030375d20525820646573632062617365a8
:101040003a2000005b4442475d205b474d41432d01
:1010500030385d2054582064657363206261736585
:101060003a2000005b4442475d205b474d41432de1
:1010700030395d2054582f525820656e61626c657e
:10108000640a00005b4442475d205b474d41432dad
:1010900031305d20474d414320696e746572727531
:1010a00070747320656e61626c65640a00000000f4
:1010b0005b4442475d205b474d41432d31315d200c
:1010c000474d41435f4e43523a2000005b44424744
:1010d0005d205b474d41432d31325d20474d4143fb
:1010e0005f4e434647523a20000000005b444247af
:1010f0005d205b474d41432d31335d20474d4143da
:101100005f524251423a20005b4442475d205b47b8
:101110004d41432d31345d20676d61635f6c6f77a6
:101120005f6c6576656c5f696e6974282920636ff2
:101130006d706c6574650a005b4442475d205b45d9
:10114000494e49542d30335d20676d61635f6c6f8c
:10115000775f6c6576656c5f696e697428292072ab
:10116000657475726e65640a000000005b44424756
:101170005d205b45494e49542d30345d20437265f6
:101180006174696e672052582073656d6170686f75
:1011900072652e2e2e0a00005b4442475d205b459f
:1011a000494e49542d21215d2052582073656d61af
:1011b00070686f7265206372656174696f6e204636
:1011c00041494c45440a00005b4442475d205b4571
:1011d000494e49542d30355d2052582073656d615c
:1011e00070686f726520637265617465640a0000df
:1011f0005b4442475d205b45494e49542d30365d86
:10120000204372656174696e6720474d41432052e7
:1012100058207461736b2e2e2e0a00005b444247e7
:101220005d205b45494e49542d21215d20474d41ac
:1012300043205258207461736b2063726561746936
:101240006f6e204641494c45440a00005b444247ca
:101250005d205b45494e49542d30375d20474d4157
:1012600043205258207461736b206372656174650a
:10127000640a00005b4442475d205b45494e495487
:101280002d30385d2065746865726e657469665fbf
:10129000696e6974282920636f6d706c65746520b0
:1012a0004f4b0a004d434850424f4152445f430068
:1012b000474d4143000000005b4442475d205b4cca
:1012c0005749502d30315d206c7769705f6e6574c1
:1012d000776f726b5f696e6974282920656e74651b
:1012e000720a00005b4442475d205b4c5749502d19
:1012f00030325d2043616c6c696e67207463706985
:10130000705f696e697428292e2e2e0a0000000075
:101310005b4442475d205b4c5749502d30335d2084
:1013200074637069705f696e6974282920726574ce
:1013300075726e6564204f4b0a0000005b444247a3
:101340005d205b4c5749502d30345d2043616c6cff
:10135000696e67206e657469665f61646428292020
:101360002d3e2065746865726e657469665f696e8e
:10137000697428292e2e2e0a000000005b44424783
:101380005d205b4c5749502d30355d206e6574698a
:10139000665f61646428292072657475726e656485
:1013a0000a0000005b4442475d205b4c5749502dca
:1013b00030365d206e6574696620736574206173d4
:1013c0002064656661756c7420616e642055500af6
:1013d000000000005b4442475d205b4c5749502da4
:1013e00030375d205374617274696e6720444843de
:1013f000502e2e2e0a0000005b4442475d205b4cbd
:101400005749502d30385d20444843502073746153
:10141000727465640a0000005b4442475d205b4cc7
:101420005749502d30395d206c7769705f6e657457
:10143000776f726b5f696e6974282920636f6d70b6
:061440006c6574650a00f2
:020000040000fa
:020000040040ba
:021446007047ed
:020000040000fa
:020000040040ba
:101448002de9f04188b005469449954a0d2011f8d8
:10145800014b536913f0020ffbd0d4610b783bb1f9
:101468000a2bf4d1536913f0020ffbd0d061eee7d9
:101478002db38c4b03f58052c2f888588a4aea6229
:101488006b62652385f83a306e2385f83b30874bcd
:101498006b61874bab618749814a0d2411f8010bb9
:1014a800536913f0020ffbd0d0610b7843b10a2bbc
:1014b800f4d1536913f0020ffbd0d461eee7fee7d5
:1014c8007d49774a0d2411f8010b536913f0020f77
:1014d800fbd0d0610b783bb10a2bf4d1536913f0e0
:1014e800020ffbd0d461eee7062385f83230734b48
:1014f8001868c5f833009b88a5f8373040f2dc53ec
:101508002b8695f8393043f0320385f839306c4929
:10151800634a0d2411f8010b536913f0020ffbd035
:10152800d0610b783bb10a2bf4d1536913f0020f49
:10153800fbd0d461eee7634a13604ff0ff30d0620e
:10154800116841f0200111600f21116240f23f1132
:101558005161516a5c4951605c491161d3605c4ad0
:1015680010604ff0404151605a4a6ff0010111601c
:101578005360544c5648114604eb8302d2f8006479
:10158800c2f84004c2f880140133052bf4d195f851
:10159800362095f835301b0443ea026395f833206a
:1015a800134395f8342043ea0223464ac2f88830a8
:1015b80095f8381095f8373043ea0123c2f88c3093
:1015c8004549a2f520320d2411f8010b536913f097
:1015d800020ffbd0d0610b783bb10a2bf4d15369d1
:1015e80013f0020ffbd0d461eee73c4b802283f866
:1015f80027235a603a492a4a0d2411f8010b5369e6
:1016080013f0020ffbd0d0610b783bb10a2bf4d159
:10161800536913f0020ffbd0d461eee73149204a39
:101628000d2400e0d46111f8010b536913f0020f87
:10163800fbd0d0610b7833b10a2bf4d1536913f086
:10164800020ffbd0eee71f4a136843f01003136044
:10165800536823f4e01343f4801353602249a2f53e
:1016680020320d2400e0d46111f8010b536913f006
:10167800020ffbd0d0610b7833b10a2bf4d1536938
:1016880013f0020ffbd0eee7022100200ef022fc3f
:1016980004461649024a0d252be000bf3c0b4000ca
:1016a80000800240a0af4120a4124000299c4000c5
:1016b800796b4000680b40009c0b4000d41341003c
:1016c800cc0b40000000054003201200040718015d
:1016d80030f1412028f14120fc0b400000e100e0fe
:1016e800200c40005c0c4000900c4000b80c4000fe
:1016f800d56111f8010b536913f0020ffbd0d061cb
:101708000b7833b10a2bf4d1536913f0020ffbd0d5
:10171800eee703ad884e0fce0fc533682b708749af
:10172800874a0d2511f8010b536913f0020ffbd0fe
:10173800d0610b783bb10a2bf4d1536913f0020f37
:10174800fbd0d561eee71c217d4a24fa01f303f0b2
:101758000f0320336b4413f8140c536913f0020f72
:10176800fbd0d061043911f1040feed1744a5369ea
:1017780013f0020ffbd0724b0d22da611a4653693f
:1017880013f0020ffbd06e4b0a22da61032100200e
:101798000ef0a0fb04466b49694a11f8010b536926
:1017a80013f0020ffbd0d0610b7853b10a2bf4d1a0
:1017b8006348436913f0020ffbd0614b0d20d861d9
:1017c800ebe703ad5c4e0fce0fc533682b705b495a
:1017d8005b4a0d2511f8010b536913f0020ffbd07a
:1017e800d0610b783bb10a2bf4d1536913f0020f87
:1017f800fbd0d561eee71c21514a24fa01f303f02e
:101808000f0320336b4413f8140c536913f0020fc1
:10181800fbd0d061043911f1040feed1484a536965
:1018280013f0020ffbd0464b0d22da611a465369ba
:1018380013f0020ffbd0424b0a22da61022100208a
:101848000ef048fb4ff6ff73984215d03e493c4acc
:1018580011f8010b536913f0020ffbd0d0610b781c
:1018680013b30a2bf4d13648436913f0020ffbd0a7
:10187800334b0d20d861ebe7344b314a13f8011b89
:10188800506910f0020ffbd0d1611978002900f0df
:101898003c860a29f2d12a49486910f0020ffbd088
:1018a80027490d20c861e9e70ff074fc284b294a45
:1018b8005a630ff06ffc0a200ef0bafd4ff47a75e8
:1018c800002108460ef006fb044610f4004f04d031
:1018d80001200ef0adfd013df2d11f49184a0d253a
:1018e80011f8010b536913f0020ffbd0d0610b788c
:1018f8003bb10a2bf4d1536913f0020ffbd0d56129
:10190800eee703ad0c4e0fce0fc533682b700b49b5
:101918000b4a0d2511f8010b536913f0020ffbd088
:10192800d0610b78d3b10a2bf4d1536913f0020fad
:10193800fbd0d561eee700bf18054000d401400098
:1019480000800240d40c4000300d4000f00c4000f4
:101958000000054000800250540d40001c219d4aa3
:1019680024fa01f303f00f0320336b4413f8140c2b
:10197800536913f0020ffbd0d061043911f1040f41
:10198800eed1944a536913f0020ffbd0914b0d220c
:10199800da611a46536913f0020ffbd08d4b0a2205
:1019a800da6132200ef044fd8b498a4a11f8010ba6
:1019b800536913f0020ffbd0d0610b7853b10a2b97
:1019c800f4d18448436913f0020ffbd0814b0d20fa
:1019d800d861ebe70ff0defb804b814a5a630ff0ca
:1019e800d9fb0026dff814827a4c41e00df10c0c8b
:1019f800dff8fce1bee80f00ace80f00def80030cd
:101a08008cf80030774a0d2012f8011b636913f037
:101a1800020ffbd0e16113783bb10a2bf4d1636963
:101a280013f0020ffbd0e061eee71c2225fa02f367
:101a380003f00f0320336b4413f8141c636913f08d
:101a4800020ffbd0e161043a12f1040feed1636991
:101a580013f0020ffbd00d23e361636913f0020f4b
:101a6800fbd00a23e361013641f288339e4229d034
:101a7800012100200ef02efa054610f0200721d192
:101a880001200ef0d5fca8fb06239b094ff47a72bf
:101a980002fb136340f2e7329342e4d1524a0d202d
:101aa80012f8011b636913f0020ffbd0e161137890
:101ab800002b9bd00a2bf3d1636913f0020ffbd0e4
:101ac800e061ede74949434a0d2400e0d46111f88b
:101ad800010b536913f0020ffbd0d0610b7833b1bf
:101ae8000a2bf4d1536913f0020ffbd0eee703acd5
:101af8003f4e0fce0fc4336823703a49354a0d2440
:101b080011f8010b536913f0020ffbd0d0610b7869
:101b18003bb10a2bf4d1536913f0020ffbd0d46107
:101b2800eee71c212b4a25fa01f303f00f032033bb
:101b38006b4413f8140c536913f0020ffbd0d061f7
:101b4800043911f1040feed1224a536913f0020f40
:101b5800fbd0204b0d22da611a46536913f0020fad
:101b6800fbd01c4b0a22da61efb1012100200ef0f4
:101b7800b1f9012100200ef0adf904461d49154abe
:101b88000d2511f8010b536913f0020ffbd0d0613a
:101b98000b78002b34d00a2bf3d1536913f0020fc2
:101ba800fbd0d561ede714490a4a11f8010b5369d6
:101bb80013f0020ffbd0d0610b78002bd5d00a2b85
:101bc800f3d10448436913f0020ffbd0014b0d20f9
:101bd800d861eae700800240800d4000000005401f
:101be80000120250d4014000b00d4000d80d400052
:101bf800180540002c0e4000fc0d4000d34d62102b
:101c080003ad974e0fce0fc533682b709549964a92
:101c18000d2511f8010b536913f0020ffbd0d061a9
:101c28000b783bb10a2bf4d1536913f0020ffbd0a8
:101c3800d561eee71c218c4a24fa01f303f00f0367
:101c480020336b4413f8140c536913f0020ffbd0c4
:101c5800d061043911f1040feed1834a536913f0ae
:101c6800020ffbd0804b0d22da611a46536913f03c
:101c7800020ffbd07c4b0a22da6114f0040f15d056
:101c88007a491a4611f8010b536913f0020ffbd079
:101c9800d0610b7813b30a2bf4d17348436913f05e
:101ca800020ffbd0704b0d20d861ebe770496e4aec
:101cb80011f8010b536913f0020ffbd0d0610b78b8
:101cc800002b00f022840a2bf2d1674b586910f0e0
:101cd800020ffbd0644b0d20d861e9e705210020f5
:101ce8000ef0f8f8044663495f4a0d2511f8010b18
:101cf800536913f0020ffbd0d0610b783bb10a2b6c
:101d0800f4d1536913f0020ffbd0d561eee703adb0
:101d1800534e0fce0fc533682b705249524a0d25ca
:101d280011f8010b536913f0020ffbd0d0610b7847
:101d38003bb10a2bf4d1536913f0020ffbd0d561e4
:101d4800eee71c21484a24fa01f303f00f0320337d
:101d58006b4413f8140c536913f0020ffbd0d061d5
:101d6800043911f1040feed13f4a536913f0020f01
:101d7800fbd03d4b0d22da611a46536913f0020f6e
:101d8800fbd0394b0a22da6114f4807f11d114f0a8
:101d9800800f2ad114f0400f58d0374a536823f0e7
:101da800030343f0020353603449a2f520320d24a3
:101db8003ae0314a536843f0030353603049a2f5cf
:101dc80020320d2411f8010b536913f0020ffbd0d8
:101dd800d0610b78002b00f093830a2bf2d1536962
:101de80013f0020ffbd0d461ece7234a536823f0c9
:101df800030343f0010353602249a2f520320d2466
:101e080011f8010b536913f0020ffbd0d0610b7866
:101e1800002b00f075830a2bf2d1536913f0020fdf
:101e2800fbd0d461ece7d46111f8010b536913f0ce
:101e3800020ffbd0d0610b78002b00f061830a2bd6
:101e4800f2d1536913f0020ffbd0ece70a4a53684a
:101e580023f0030353600c49a2f520320d2416e049
:101e680018054000d4014000008002408c0e40005c
:101e7800580e4000a80e400000000540380f4000f2
:101e8800d80e4000080f4000680f4000d46111f8d8
:101e9800010b536913f0020ffbd0d0610b78002bb4
:101ea80000f02e830a2bf2d1536913f0020ffbd0f6
:101eb800ece7d46111f8010b536913f0020ffbd062
:101ec800d0610b7833b10a2bf4d1536913f0020fa8
:101ed800fbd0eee78d498e4a0d2412e0d46111f84b
:101ee800010b536913f0020ffbd0d0610b78002b64
:101ef800f0d00a2bf3d1536913f0020ffbd0ede7b2
:101f0800d46111f8010b536913f0020ffbd0d061b3
:101f18000b7833b10a2bf4d1536913f0020ffbd0bd
:101f2800eee77c4c20460df0d5fb20460df08cfaf0
:101f380004f01f02bff34f8f2346774841f6900104
:101f480021441144c0f868322033ca1a002af9dc47
:101f5800bff34f8fbff36f8f70496d4a0d2411f88f
:101f6800010b536913f0020ffbd0d0610b783bb122
:101f78000a2bf4d1536913f0020ffbd0d461eee7ba
:101f8800644c03ad664e0fce0fc533682b706549a0
:101f98005f4a0d2511f8010b536913f0020ffbd0ae
:101fa800d0610b783bb10a2bf4d1536913f0020fbf
:101fb800fbd0d561eee71c21554a24fa01f303f062
:101fc8000f0320336b4413f8140c536913f0020ffa
:101fd800fbd0d061043911f1040feed14c4a53699a
:101fe80013f0020ffbd04a4b0d22da611a465369ef
:101ff80013f0020ffbd0464b0a22da614a491a460f
:1020080011f8010b536913f0020ffbd0d0610b7864
:1020180053b10a2bf4d13e48436913f0020ffbd0a9
:102028003b4b0d20d861ebe7404c03ad3c4e0fce47
:102038000fc533682b703b49354a0d2511f8010b44
:10204800536913f0020ffbd0d0610b783bb10a2b18
:10205800f4d1536913f0020ffbd0d561eee71c21d0
:102068002b4a24fa01f303f00f0320336b4413f8cf
:10207800140c536913f0020ffbd0d061043911f12d
:10208800040feed1224a536913f0020ffbd0204b04
:102098000d22da611a46536913f0020ffbd01c4b6c
:1020a8000a22da61224a136843f08c03136021493b
:1020b800a2f5203211f8010b536913f0020ffbd07f
:1020c800d0610b7853b10a2bf4d11148436913f04e
:1020d800020ffbd00e4b0d20d861ebe7144b40f6f6
:1020e800d2429a6214490a4a0d2411f8010b536925
:1020f80013f0020ffbd0d0610b78fbb10a2bf4d19f
:10210800536913f0020ffbd0d461eee7ec0f4000e7
:1021180000800240a0af412000ed00e02410400004
:1021280018054000d401400044104000e0af4120b1
:102138000000054064104000841040008b498c4a20
:102148000d2411f8010b536913f0020ffbd0d06175
:102158000b783bb10a2bf4d1536913f0020ffbd073
:10216800d461eee7834b1c6803ad834e0fce0fc5d9
:1021780033682b7081497e4a0d2500e0d56111f83e
:10218800010b536913f0020ffbd0d0610b7833b108
:102198000a2bf4d1536913f0020ffbd0eee71c2190
:1021a800734a24fa01f303f00f0320336b4413f846
:1021b800140c536913f0020ffbd0d061043911f1ec
:1021c800040feed16a4a536913f0020ffbd0684b33
:1021d8000d22da611a46536913f0020ffbd0644be3
:1021e8000a22da6166491a4611f8010b536913f09d
:1021f800020ffbd0d0610b7853b10a2bf4d15c48a5
:10220800436913f0020ffbd0594b0d20d861ebe75f
:10221800584b5c6803ad584e0fce0fc533682b7012
:102228005649534a0d2511f8010b536913f0020f53
:10223800fbd0d0610b783bb10a2bf4d1536913f072
:10224800020ffbd0d561eee71c21494a24fa01f3bd
:1022580003f00f0320336b4413f8140c536913f085
:10226800020ffbd0d061043911f1040feed1404abe
:10227800536913f0020ffbd03d4b0d22da611a4669
:10228800536913f0020ffbd0394b0a22da613d493a
:102298001a4611f8010b536913f0020ffbd0d061f5
:1022a8000b7853b10a2bf4d13148436913f0020f6c
:1022b800fbd02f4b0d20d861ebe72e4b9c6903ad6b
:1022c8002d4e0fce0fc533682b702c49284a0d258b
:1022d80011f8010b536913f0020ffbd0d0610b7892
:1022e8003bb10a2bf4d1536913f0020ffbd0d5612f
:1022f800eee71c211e4a24fa01f303f00f032033f2
:102308006b4413f8140c536913f0020ffbd0d0611f
:10231800043911f1040feed1154a536913f0020f75
:10232800fbd0134b0d22da611a46536913f0020fe2
:10233800fbd00f4b0a22da6113491a4611f8010b38
:10234800536913f0020ffbd0d0610b7853b10a2bfd
:10235800f4d10748436913f0020ffbd0044b0d205a
:10236800d861ebe70949024a0d2412e0b010400099
:10237800008002400000054018054000d4014000dc
:10238800cc104000ec10400008114000381140000b
:10239800d46111f8010b536913f0020ffbd0d0611f
:1023a8000b7833b10a2bf4d1536913f0020ffbd029
:1023b800eee75849584a0d2404e0536913f0020f18
:1023c800fbd0d46111f8010b536913f0020ffbd055
:1023d800d0610b7813b10a2bf4d1eee700214f48f6
:1023e8000ef04cfd044698b94d494b4a0d2511f89d
:1023f800010b536913f0020ffbd0d0610b780bb3bc
:102408000a2bf4d1536913f0020ffbd0d561eee724
:102418004449414b0d2011f8014b5a6912f0020f43
:10242800fbd0dc610a783ab10a2af4d15a6912f071
:10243800020ffbd0d861eee74ff0ff34204608b01a
:10244800bde8f0813849344a0d2511f8010b53696c
:1024580013f0020ffbd0d0610b783bb10a2bf4d1fb
:10246800536913f0020ffbd0d561eee70423009304
:102478004ff400732d4a2e492e480ef0f5f898b106
:102488002d49254a0d2511f8010b536913f0020f48
:10249800fbd0d0610b78f3b10a2bf4d1536913f058
:1024a800020ffbd0d561eee7244a1b4b0d2012f832
:1024b800011b5c6914f0020ffbd0d961117839b1a6
:1024c8000a29f4d1596911f0020ffbd0d861eee75f
:1024d8004ff0ff34b2e71a490f4a0d2511f8010be6
:1024e800536913f0020ffbd0d0610b78002ba5d0f5
:1024f8000a2bf3d1536913f0020ffbd0d561ede736
:1025080010495b23044a0d24f3e40f495b23024a74
:102518000d24d8e46c114000008002402cc84120f2
:10252800c811400098114000f0114000a0af4120b0
:1025380045ea4000b01240004c1240001c12400016
:0c25480074124000c40f4000980f4000c7
:020000040000fa
:020000040040ba
:1025540070b5c8b08d4b1b780a2b00f29081dfe870
:1025640013f00b001e003400380053008e01c50028
:102574009001c80217045405854b93f8393013f0c1
:10258400100f07d0834900200df06efd7f4b012210
:102594001a7074e1804900200df066fd6fe17c4bf8
:1025a4005b681bb914200df0cbfc68e1784ad37941
:1025b40001939379009353791279784900200bf0b1
:1025c40057fd724b02221a70ece7704b03221a700b
:1025d40055e1734b1b7853b1724b1a1fa3f10801d9
:1025e4006f480bf09ff930b9684b04221a7014201d
:1025f4000df0a6fc43e16a4c22466b4900200bf027
:1026040037fd002323703ae16849694a0d2411f823
:10261400010b536913f0020ffbd0d0610b783bb16f
:102624000a2bf4d1536913f0020ffbd0d461eee707
:10263400564b98680cf076fc00286cd003691b6834
:102644001c68524b9c615b49594a0d2500e0d561d9
:1026540011f8010b536913f0020ffbd0d0610b7812
:1026640033b10a2bf4d1536913f0020ffbd0eee718
:1026740008ad514e0fce0fc533682b704f494c4aed
:102684000d2511f8010b536913f0020ffbd0d06133
:102694000b783bb10a2bf4d1536913f0020ffbd032
:1026a400d561eee71c2108ad414a24fa01f303f099
:1026b4000f03e85c536913f0020ffbd0d0610439b7
:1026c40011f1040ff1d13a4a536913f0020ffbd010
:1026d400374b0d22da611a46536913f0020ffbd00f
:1026e400334b0a22da61294b06221a703449304ae4
:1026f4000d2420e0d46111f8010b536913f0020f8b
:10270400fbd0d0610b7853b10a2bf4d1536913f089
:10271400020ffbd0eee72b49254a0d24ebe71b4bb8
:1027240003221a701e4b00221a70a8e0536913f09a
:10273400020ffbd0d46111f8010b536913f0020f9f
:10274400fbd0d0610b7813b10a2bf4d1eee706224b
:10275400012102200af004fb041e49db0b4b5c60e0
:102764001949134a0d2511f8010b536913f0020f8f
:10277400fbd0d0610b78002b3ed00a2bf3d15369e8
:1027840013f0020ffbd0d561ede700bf08f0412044
:10279400a0ef41206804400088044000ac044000dd
:1027a40094e8412018f04120c804400094014000fe
:1027b40000800240b401400018054000d4014000ec
:1027c400f8014000d801400030024000d46111f803
:1027d400010b536913f0020ffbd0d0610b78002b6f
:1027e4004dd00a2bf3d1536913f0020ffbd0ede760
:1027f4009449954a0d24eae70df1200c934d0fcd31
:10280400ace80f002b688cf8003091498e4a0d25f6
:1028140011f8010b536913f0020ffbd0d0610b7850
:102824003bb10a2bf4d1536913f0020ffbd0d561ed
:10283400eee71c210df1200c834a24fa01f303f086
:102844000f031cf80300536913f0020ffbd0d0618f
:10285400043911f1040ff0d17b4a536913f0020fcc
:10286400fbd0794b0d22da611a46536913f0020f3b
:10287400fbd0754b0a22da61764b07221a7048b0f6
:1028840070bd744c02236375208a0ef08dfde082c6
:1028940071496d4a0d2411f8010b536913f0020fad
:1028a400fbd0d0610b783bb10a2bf4d1536913f000
:1028b400020ffbd0d461eee7664b1c8a08ad634e71
:1028c4000fce0fc533682b7061495f4a0d2511f88f
:1028d400010b536913f0020ffbd0d0610b783bb1ad
:1028e4000a2bf4d1536913f0020ffbd0d561eee744
:1028f4001c2108ad544a24fa01f303f00f03e85ce9
:10290400536913f0020ffbd0d061043911f1040fa5
:10291400f1d14d4a536913f0020ffbd04a4b0d22fb
:10292400da611a46536913f0020ffbd0464b0a22b0
:10293400da614a49102251f8100c0bf037fd844635
:102944004749414a11f8010b536913f0020ffbd0b8
:10295400d0610b7853b10a2bf4d13b48436913f08f
:10296400020ffbd0384b0d20d861ebe708ac374d94
:102974000fcd0fc42b6823703549334a0d2411f849
:10298400010b536913f0020ffbd0d0610b783bb1fc
:102994000a2bf4d1536913f0020ffbd0d461eee794
:1029a4001c2108ac284a2cfa01f303f00f03e05c65
:1029b400536913f0020ffbd0d061043911f1040ff5
:1029c400f1d1214a536913f0020ffbd01e4b0d22a3
:1029d400da611a46536913f0020ffbd01a4b0a222c
:1029e400da61bcf1000f16db1e491a4611f8010b1f
:1029f400536913f0020ffbd0d0610b78002b74d015
:102a04000a2bf3d11048436913f0020ffbd00e4b8d
:102a14000d20d861eae714490b4a11f8010b5369f8
:102a240013f0020ffbd0d0610b78fbb10a2bf4d169
:102a34000548436913f0020ffbd0034b0d20d86106
:102a4400ebe700bf18024000008002401805400078
:102a5400d401400008f04120540240001cf0412001
:102a640078024000b80240009c024000894b1c6878
:102a740008ad894e0fce0fc533682b708749884a3d
:102a84000d2504e0536913f0020ffbd0d56111f852
:102a9400010b536913f0020ffbd0d0610b7813b113
:102aa4000a2bf4d1eee71c2108ad7d4a24fa01f388
:102ab40003f00f03e85c536913f0020ffbd0d061fd
:102ac400043911f1040ff1d1754a536913f0020f5f
:102ad400fbd0734b0d22da611a46536913f0020fcf
:102ae400fbd06f4b0a22da61c9e66e4b08221a70da
:102af400c5e66c4a9368d2686b4908a80ef0cef814
:102b040008a80ef0d5f984466849654a0d2411f8e1
:102b1400010b536913f0020ffbd0d0610b783bb16a
:102b24000a2bf4d1536913f0020ffbd0d461eee702
:102b34005f495b4a0d2411f8010b536913f0020f2e
:102b4400fbd0d0610b783bb10a2bf4d1536913f05d
:102b5400020ffbd0d461eee703ac4f4d0fcd0fc491
:102b64002b6823704d494e4a0d2400e0d46111f8be
:102b7400010b536913f0020ffbd0d0610b7833b112
:102b84000a2bf4d1536913f0020ffbd0eee71c219a
:102b940003ac434a2cfa01f303f00f03e05c5369de
:102ba40013f0020ffbd0d061043911f1040ff1d1fd
:102bb4003b4a536913f0020ffbd0394b0d22da6103
:102bc4001a46536913f0020ffbd0354b0a22da611f
:102bd4000023624608a9334840680af03bf884465b
:102be40034492f4a11f8010b536913f0020ffbd03b
:102bf400d0610b7853b10a2bf4d12948436913f0ff
:102c0400020ffbd0264b0d20d861ebe703ac224d1d
:102c14000fcd0fc42b6823702049214a0d2404e0f2
:102c2400536913f0020ffbd0d46111f8010b5369ff
:102c340013f0020ffbd0d0610b7813b10a2bf4d13f
:102c4400eee71c2103ac164a2cfa01f303f00f0340
:102c5400e05c536913f0020ffbd0d061043911f129
:102c6400040ff1d10e4a536913f0020ffbd00c4b41
:102c74000d22da611a46536913f0020ffbd0084b98
:102c84000a22da61bcf1000f18db0b49044a0d2457
:102c94006ee000bf4cf2412018054000d401400012
:102ca4000080024008f04120e4044000d0024000cb
:102cb400ec024000080340004403400089498a4a6a
:102cc40011f8010b536913f0020ffbd0d0610b789c
:102cd40053b10a2bf4d18448436913f0020ffbd09b
:102ce400814b0d20d861ebe7804b1c6803ad804e0f
:102cf4000fce0fc533682b707e497b4a0d2500e04b
:102d0400d56111f8010b536913f0020ffbd0d061a8
:102d14000b7833b10a2bf4d1536913f0020ffbd0b3
:102d2400eee71c2103ad704a24fa01f303f00f030c
:102d3400e85c536913f0020ffbd0d061043911f140
:102d4400040ff1d1684a536913f0020ffbd0664bac
:102d54000d22da611a46536913f0020ffbd0624b5d
:102d64000a22da6191e7536913f0020ffbd0d461b0
:102d740011f8010b536913f0020ffbd0d0610b78eb
:102d840013b10a2bf4d1eee75b4b09221a7076e5f6
:102d94005a49554a0d2411f8010b536913f0020fd7
:102da400fbd0d0610b783bb10a2bf4d1536913f0fb
:102db400020ffbd0d461eee74f2208a94e484068c9
:102dc4000ef077f906464e49474a0d2411f8010bd7
:102dd400536913f0020ffbd0d0610b783bb10a2b7f
:102de400f4d1536913f0020ffbd0d461eee703acc6
:102df4003f4d0fcd0fc42b6823703e493a4a0d2432
:102e040000e0d46111f8010b536913f0020ffbd0f9
:102e1400d0610b7833b10a2bf4d1536913f0020f4c
:102e2400fbd0eee71c2103ac2f4a26fa01f303f092
:102e34000f03e05c536913f0020ffbd0d061043937
:102e440011f1040ff1d1284a536913f0020ffbd09a
:102e5400254b0d22da611a46536913f0020ffbd099
:102e6400214b0a22da61002e00f38880a6b125499d
:102e74001a460d241de0536913f0020ffbd0d461f0
:102e840011f8010b536913f0020ffbd0d0610b78da
:102e940033b10a2bf4d1eee71b49134a0d24efe7b3
:102ea400154b0a221a70eae4536913f0020ffbd09f
:102eb400d46111f8010b536913f0020ffbd0d061f8
:102ec4000b7813b10a2bf4d1eee7084b1c6803ad61
:102ed400074e0fce0fc533682b700649024a0d25e5
:102ee40015e000bf28034000008002404cf241205e
:102ef40018054000d401400008f041206c03400054
:102f040088034000d4034000a8034000d56111f8b1
:102f1400010b536913f0020ffbd0d0610b7833b16e
:102f24000a2bf4d1536913f0020ffbd0eee71c21f6
:102f340003ad4f4a24fa01f303f00f03e85c53692d
:102f440013f0020ffbd0d061043911f1040ff1d159
:102f5400474a536913f0020ffbd0454b0d22da6147
:102f64001a46536913f0020ffbd0414b0a22da616f
:102f74000b2c3ff484ac3f4b1a7080e408ab002266
:102f84009a553d493a4a0d2411f8010b536913f03f
:102f9400020ffbd0d0610b783bb10a2bf4d15369fb
:102fa40013f0020ffbd0d461eee79df82030a3b1fb
:102fb40008a92f4a0d2408e011f8010b536913f0f6
:102fc400020ffbd0d0610b783bb10a2bf4d15369cb
:102fd40013f0020ffbd0d461eee728490a23244af8
:102fe4000d240ae011f8010b536913f0020ffbd012
:102ff400d0610b78002b3ff442ac0a2bf2d1536919
:1030040013f0020ffbd0d461ece71d49184a0d24dc
:1030140011f8010b536913f0020ffbd0d0610b7848
:103024003bb10a2bf4d1536913f0020ffbd0d461e6
:10303400eee7104b58680af003fc12490c4a0d24c1
:1030440011f8010b536913f0020ffbd0d0610b7818
:103054003bb10a2bf4d1536913f0020ffbd0d461b6
:10306400eee7044b03221a70074b00221a7006e4a1
:103074000080024008f04120f403400014044000a2
:0c308400300440004c04400094e841205f
:020000040000fa
:020000040040ba
:10309000f0b583b004460d4643681a7802f00f027b
:1030a000910003eb8203944a136049420af0e4fc66
:1030b00010b92389132b04d820460af04ff803b027
:1030c000f0bd29468d4b18680cf068fb0028f3d141
:1030d0008a4b1b6803f0f003e02bedd023890093ab
:1030e0000623864a8649204609f010fc0028e3d1d1
:1030f000814b1b6898890ef05cf9000bc0eb8030a7
:10310000810009b220460af0b7fc0028d4d17a4ddc
:103110002e6830880ef04df930802e6870880ef0e1
:1031200048f970802e6870680ef02ef97060754b4b
:1031300018602e68b0680ef027f9b060724b186006
:103140002e68f0890ef035f9f0812b6898890ef021
:1031500030f95ffa80fe00f03f026c4b1a7010f0fd
:10316000030018bf01202389184481b2684b1980dd
:10317000684b1e68002e71d02868614b1f68354669
:103180004ff0000c09e0fee7fee7fee7fee7fee792
:10319000eb68ac46002b61d01d462b7e002bf2d095
:1031a0000a2bf1d0012bf0d0aa8b03889a42efd1e1
:1031b0006a8b43889a42ebd16b68bb42e8d12b689b
:1031c0004e4a12689342e3d1eb68ab42ded0bcf1c9
:1031d000000f06d0ccf80c30ee60ae42d7d04d4b8d
:1031e0001d604d4b00221a60218919815c601861b5
:1031f0004a4b1a604a4b1a701ef0080f03d0637bcb
:1032000043f001036373ab6f6bb128460af0c8fe4d
:1032100010f10a0f00f06081ab6f23b13c4b1b88ab
:10322000002b40f059813f4b1d60384b1b7813f049
:10323000040f00f015812a7e022a00f00281314b32
:103240001b68a96a5b1a00f13281a98d5b1a002bf9
:1032500000f32d81002a40f0f980fee7324b186818
:10326000002865d0244b1d68254bd3f800c01be017
:10327000fee701930092224b204a31442248006825
:1032800009f0e9f834e01ef0010f2fd0274b1b683e
:1032900043622be0837f43f00203837703f0bcf9a2
:1032a00026e0c068002843d0037e0a2be0d12b889b
:1032b000828b9a42f5d16a88468b9642f1d1466854
:1032c0006645eed10d4e36680768b742e9d11ef06b
:1032d000040f0dd11ef0020fd5d00a4d2e68856a5d
:1032e000751b03d4878ded1b002dc2dd0029d1d1c4
:1032f000204609f033ffe2e6e0f14120e8f1412009
:10330000ecf14120dcf14120d8f1412060f2412074
:1033100002f14120c0f14120acf04120d4f1412024
:103320005ff24120d0f14120bcf14120ccf141209d
:103330009c4b1f68002f00f063839b4bd3f800c0a9
:10334000bcf80200994b1e683d46002205e0eb6880
:103350002a46002b00f054831d466b8b8342f6d126
:103360002b680bb1b342f2d122b1eb68d360ef60ae
:103370008c4b1d601ef0040f05d11ef0100f06d1fe
:103380001ef0020f13d1204609f0e8fe97e6884ba5
:103390001868bcf800300193bcf802300093854bec
:1033a000824a01448448006809f055f8ebe7687eda
:1033b00006f0c8fc06460028e5d07c4b1b6803607d
:1033c0006b8b43837b4b1b684360774b1a68138876
:1033d000838303230376764b1b68591c8162016348
:1033e000d189a0f86010d289a0f86220a0f84e1010
:1033f000013b43652b6903616b6943612b7a23f0c1
:10340000730303726d4b1a68c26018600cf09afa6d
:103410006b4b01221a70304609f050f9311df08ec5
:103420000df060fbf0861221304607f013f920b151
:103430000021304609f0f6f8a5e7304603f0ecf835
:10344000a1e72a6d5c4b1b689a4230d15d4a137824
:1034500043f008031370ab7f23f00103ab7726e042
:1034600013f0020f04d02b7e023bdbb2012b1ad8e3
:10347000ab7f13f0100f02d1534b1b686b6200231c
:1034800085f89630284609f019f92b7e023b072b68
:103490000dd8dfe813f03100c700260136018f0197
:1034a0002601c9011f02ab7f43f00203ab77454bf6
:1034b0001b7813f0080f00f02282d5f88c301bb176
:1034c0006ff00a012869984729463c4809f0f6fa46
:1034d000294602200cf042ff00233c4a13603c4a7c
:1034e00013603c4b586800283ff4e9ad09f036fe04
:1034f000384b00225a60e2e5374b1b7803f0120389
:10350000122b16d0344b1b7813f0100fcfd0264b54
:103510001b68324a1088264a11681a8801925b8813
:103520000093244b214a01442348006808f093ff8c
:10353000bde72b6f1b6958680df026ff1e4b1a68fc
:10354000431c9342ded1b5f866300133a5f86630ee
:10355000174b1b68591ca9622963aa64124a126896
:10356000d189a5f86010d289a5f86220013b6b656e
:1035700004232b76e918e88e0df0b4fa0346e886aa
:1035800000eb80025200a5f84e20b5f84c20012a2d
:1035900005d0a5f84c30b5f868300bbbfee743000a
:1035a0009bb2f6e7c4f14120e0f14120e8f141206f
:1035b000dcf14120ecf14120d8f14120c0f1412063
:1035c0005ef241205ff24120ccf14120d0f1412058
:1035d000d4f14120acf0412060f2412002f14120c1
:1035e000013ba5f86830286f03682b670df031fbad
:1035f0002b6f9bb10023ab8685f84630d5f884301d
:103600003bb1002229462869984710f10a0f3ff480
:1036100063afab7f43f00203ab7748e74ff6ff732e
:10362000ab86ebe79c4b1b7813f0100f4ad09b4bfb
:103630001868ab6cdb43c34203d42b6dc31a002b59
:103640000fdd974b1b68974a1488974a11681a88b0
:1036500001925b880093954b954a214408f0fbfe4c
:1036600025e704232b766b691bb3002229462869c2
:103670009847f8b9b5f84c40284600f0e7f9b5f896
:10368000643013b1013ba5f86430012ceb8e04bf0c
:103690005b009bb2a5f84c30864b1b7813f0200fd3
:1036a0003ff405afab7f43f00203ab7707232b76e4
:1036b000fde6fee710f10a0f3ff40eaf28460df0cd
:1036c00038fe09e713f0020f3ff4f1aeab6a013b9d
:1036d000754a126893427ff4eaae28460bf08afae4
:1036e000e5e6284600f0b2f9724b1b7813f0200f84
:1036f0003ff4ddaeab7f43f00203ab7707232b76bd
:10370000d5e6284600f0a2f96a4b1b7813f0200f8b
:1037100041d0614b1b7813f0100f04d02a6d5f4b22
:103720001b689a4206d0ab7f43f00203ab770823b5
:103730002b76bce6ab7f43f00203ab7728460bf059
:10374000cbfe5d4b1b689d420ad05c4a1360002291
:103750000120d3b1d9688d4206d002460b46f8e766
:10376000da68554b1a6004e00ab1544a1360ca681b
:10377000da60534b01221a700a232b76514b1a68d8
:10378000ea601d600cf0def891e6002af1d04b4ba8
:1037900000221a60ede7404b1b7813f0100f3ff446
:1037a00086ae2a6d3d4b1b689a427ff480ae06239d
:1037b0002b767ce6284600f049f93e4b1b7813f047
:1037c000200f3ff474aeab7f43f00203ab77284683
:1037d0000bf082fe384b1b689d420ad0374a1360bb
:1037e00000220120d3b1d9688d4206d002460b4693
:1037f000f8e7da68304b1a6004e00ab12f4a136028
:10380000ca68da602e4b01221a700a232b762d4be0
:103810001a68ea601d600cf095f848e6002af1d0bd
:10382000264b00221a60ede7284600f00ff91a4bec
:103830001b7813f0100f3ff43aae2a6d174b1b683c
:103840009a427ff434ae28460bf046fe1a4b1b68b2
:103850009d420bd0194a136000220120002b33d067
:10386000d9688d4206d002460b46f7e7da68124b5c
:103870001a6004e00ab1114a1360ca68da60104b9a
:1038800001221a700a232b760e4b1a68ea601d601b
:103890000cf058f80be600bf60f24120d8f141204f
:1038a000e0f1412002f14120dcf14120ecf1412026
:1038b000e8f141205ff24120c0f14120b8f1412000
:1038c0005ef24120bcf14120002ad8d0534b0022a7
:1038d0001a60d4e7284600f0b9f8514b1b7813f072
:1038e000100f3ff4e4ad2a6d4e4b1b689a427ff4f3
:1038f000dead4d4a137843f010031370d7e513f093
:10390000100f13d0ab7f13f0100f06d1d5f88c3009
:103910001bb16ff00b01286998472946434809f00d
:10392000cdf8294602200cf019fdd5e5b5f8642044
:1039300042b1eb6f33b129462869984710f10a0f5d
:103940003ff4caad3a4b1a68aab1ab6f03b1fee7b8
:10395000ab7f13f0100f20d1d5f8804024b30023a3
:1039600029462869a04710f10a0f3ff4b5ad10b100
:103970002f4b1b68ab672c4b1b7813f0200f05d027
:10398000ab6fbbb15a7b42f020025a73294b002225
:103990001a60284602f040fe9ee5104609f0defb64
:1039a00028460df0c6fc97e50023294618460cf082
:1039b00063ffd8e7ab8d41f2d062934201d001336f
:1039c000ab85d5f88040002ce0d000231a4629466c
:1039d0002869a04710f10a0fd8d17de5164b1b6866
:1039e000164a1088164a11681a8801925b8800935b
:1039f000144b154a01440b48006808f02cfd07e001
:103a00000d4b1b6898890df0d4fc10f0040fe5d025
:103a1000204609f0a3fbfff752bb00bfb8f14120dd
:103a200060f24120d8f141205ff24120c0f14120f5
:103a3000d4f14120d0f14120e0f1412002f14120b8
:0c3a4000dcf14120ecf14120e8f14120d4
:020000040000fa
:020000040040ba
:103a4c00037e032b00d8fee72de9f04704469b4b81
:103a5c001b7813f0100f00f08981b0f86000a56d91
:103a6c00626d974b1b68d11a00291edb9a4217d046
:103a7c00944a1668b54234d0924b1a68a36cd11a8a
:103a8c00002945dd216d511a002972dd0023a4f8af
:103a9c006430e36e002b00f061818a4e00271ae13e
:103aac00884a1268aa1a002ae2da874a1268d6896a
:103abc00b1b2a4f86060d289b4f86260964201d2c7
:103acc00a4f8622063657f4b1b68a365c1b994f8a9
:103adc009530002bd0d184f89430012384f89530a4
:103aec00cae7794a1268d789b9b28842c4d2a4f815
:103afc006070d289b4f862709742e1d36365a665b1
:103b0c0094f89530002bb7d0002384f89530b3e7a8
:103b1c000021a4f864106d49098831b9b4f860101b
:103b2c00a66d31442844814203d0002384f84730e9
:103b3c00afe7a18e11f4004ff7d19a42f5d194f86a
:103b4c004730ff2b0bd00133dbb284f84730032b0b
:103b5c0005d8032b9dd120460bf017f999e7b4f843
:103b6c004c20e38e13449bb29a4292d2a4f84c3070
:103b7c008fe7a17f11f0040f06d021f00401a1778b
:103b8c00b4f84e10a4f84c10002084f84600b4f998
:103b9c004050b4f8421001ebe501a4f84410d31adc
:103bac009bb2a4f86430b4f866100b44a4f86630e9
:103bbc0084f84700a264b4f84c20b4f84e30934219
:103bcc000ad9e38e13449bb29a4201d2a4f84c302a
:103bdc00236febb13b4e28e0e38e03fb03f393fb27
:103bec00f2f313449bb29a42f2d2a4f84c30efe7b2
:103bfc00fee72b6998890df0d6fb10f0010f37d03a
:103c0c00b4f86430013ba4f8643031e0e36e43b1a6
:103c1c00236fb3fa83f35b095b42a3860023e3773c
:103c2c0037e7fee7236f002bf2d01b6958680df0c5
:103c3c00a5fb0546236f1f891b6998890df0b3fb03
:103c4c0010f0030318bf01233b443268ad1a2b4418
:103c5c00002bdddc256f2b682367b4f8687068686f
:103c6c000df05af98742c3d3b4f86430002bc0d19d
:103c7c0068680df051f9b4f868301b1aa4f8683074
:103c8c0028460cf0e0ffb4f86830002bcad0236f44
:103c9c00002bbbd0236fc8e7a4f86a703ce0fee7aa
:103cac002b6998890df07ffb10f0010f3fd0b4f811
:103cbc006430013ba4f8643039e0fee760f2412047
:103ccc00dcf14120d8f14120e0f1412002f141200a
:103cdc00e36e002b42d035681b6958680df04efb23
:103cec008146e36eb3f808801b6998890df05bfb85
:103cfc00a5eb090510f0030318bf01234344ed1a8b
:103d0c00002d2bdb3368226d9b1a002b26dce56e15
:103d1c002b68e366002bbfd0b4f8688068680df0a0
:103d2c00fbf88045bbd3b4f86430002bb8d168687d
:103d3c000df0f2f8b4f868301b1aa4f86830284675
:103d4c000cf081ffb4f86830002bc1d0236f002b2e
:103d5c00bed1e36e002bb0d0e36ebce7a36b2bb1ee
:103d6c00e26b88490968521a002a22db864b1b88b1
:103d7c00002b00f0ad82227e062a00f2a982a06af6
:103d8c00824a1268811a012905d4c2f10105eb1a85
:103d9c000344002b31dd131a002b65dba38dc3f11b
:103dac00010313441b1a002b63dd20460af0aefc02
:103dbc009ee2774a15889bb2b4f94060c6f3cf01f6
:103dcc00ea1a521a10b216fa82f212b2a4f8402071
:103ddc0000280edbb4f94230a3eba30303449bb2df
:103dec00a4f8423003ebe203a4f844300023a363ad
:103dfc00bce75b1b194408b2ece7664b586828b16a
:103e0c000b4647f6fe72914201ddfee7fee745895f
:103e1c008d4213da02898a4200dafee7521a92b214
:103e2c0000215b1b02814181006845899d42f8dbc2
:103e3c005b4219b209f01afe30b1fee7494209b2f1
:103e4c0009f014fe00b1fee7a26a52494f4803681c
:103e5c000d892b449b1a0b8102600b695a60a06a76
:103e6c00131a002b9adaa0e7a37f43f00203a3777f
:103e7c009be782420dd020460af048fc656f002d6e
:103e8c0000f05881414b1a68571e02f1010c0026b4
:103e9c0072e1404b1d891b6998890df084fa10f072
:103eac00030318bf01232b449bb2374a1380a28d06
:103ebc009a421dd3636f83b1364b1b6998890df001
:103ecc0072fa10f0010f55d0606f30b10368636760
:103edc000cf0b9fe606f0028f8d12b4b1a882b4bd5
:103eec001b681344a362a38d9a4240f29980fee7ab
:103efc00284b1b6998890df056fa10f0010f28d148
:103f0c00244ba28d1a811b6998890df04cfa10f084
:103f1c00020f03d01f4a1389013b13811d4e3189b7
:103f2c0070680af071fa3589336998890df03bfa9b
:103f3c0010f0030318bf01232b449bb2124a1380c9
:103f4c00124a12681344a28da16a0a449342b1d05a
:103f5c00fee7104e33699d8928460df024fa00f0d7
:103f6c003e000df01dfa326925f47c5540ea05033c
:103f7c009381c5e7656f002d50d0dff80c80034f9f
:103f8c00044e12e0d8f1412002f14120dcf1412035
:103f9c00ccf14120acf04120d5f8009028460cf033
:103fac0052feb9f1000f38d04d462a69b8f80030ee
:103fbc0039680b4451685b1a29895b1a002bc0f2d3
:103fcc00998190890df0eff910f0010fe4d033696d
:103fdc0098890df0e8f910f0020fddd1dff8bca2e2
:103fec00daf81030b3f80c9001200df0d9f9daf8aa
:103ffc00103049ea0009a3f80c90baf80890daf8e6
:10400c00103098890df0cff910f0030318bf01237d
:10401c009944a14ba3f80090bee74d4665675ce759
:10402c009b1aa38520460bf085f99c4b5b681a897b
:10403c0022b19b4a1360994b00225a60974b1b6923
:10404c0098890df0b0f910f0010f04d0954a13784f
:10405c0043f020031370656f002d5dd0904f914e8f
:10406c0019e0fee7396000236b602b6998890df02d
:10407c009af910f0010f06d0337843f02003337017
:10408c00237e042b45d02b68636728460cf0dbfda0
:10409c00656f002d40d02a695368a16a8b423bd1d1
:1040ac0081490b60b5f8088090890df07cf910f00f
:1040bc00030318bf01234344a26a1a44a262b4f852
:1040cc002c80b5f808902b6998890df06cf910f0dc
:1040dc00030318bf01234b449845c2dbb5f8088095
:1040ec002b6998890df05ff910f0030318bf0123b9
:1040fc004344a28dd31aa38520460bf01bf96968a3
:10410c000b89002bb1d038680028abd00bf0c7fc62
:10411c00a9e707232376b6e7a37f13f0010f05d099
:10412c0023f0010343f00203a377e1e043f0010322
:10413c00a377dde059480cf021f96067d8e0574bc4
:10414c001a892b899a4240f2d38054480cf016f904
:10415c000346002800f0cc802eb13060294618466a
:10416c0008f08af8c4e06067f8e7d31a002b66db26
:10417c002868b8b12e46054629694b689342ded0b3
:10418c00002ef2d030694068381a002803dbaceb03
:10419c00030000285ddd28680028ebd1d21a002a24
:1041ac0040f3a68088890df0fef810f0010f40f066
:1041bc009f803a480cf0e2f82860002800f09880c4
:1041cc002b695968384b1b682a890a44d21a002a71
:1041dc005bdc314b1a88344b1b681a44a38da16ae3
:1041ec000b449a4240f284802b681b6998890df02d
:1041fc00daf810f0010f59d12a682b4e3168a38dd3
:10420c005b1aa16a0b4413812b68198958680af050
:10421c00fbf82b681d891b6998890df0c4f810f008
:10422c00030318bf01232b449bb21b4a1380326833
:10423c001344a28da16a0a44934259d0fee7174851
:10424c000cf09cf8002853d06067294608f014f84d
:10425c004ee012480cf092f80446002848d033691e
:10426c005968114b1b6832890a44d21a002a05dca2
:10427c0034602946204607f0ffff39e05b1a99b2fb
:10428c00318170680af0c0f8f2e75b1a99b22981a3
:10429c0068680af0b9f89ce702f14120acf04120c3
:1042ac00d4f141205ff24120dcf141202b681b69e5
:1042bc009e8930460df077f800f03e000df070f856
:1042cc002b681a6926f47c5640ea0603938193e71f
:1042dc00224b1b68a26a991a002905db01339b1a31
:1042ec00a28d9b1a002b03dda37f43f00203a3775f
:1042fc00bde8f087194b19682b695a68184b1b8855
:10430c000b449b1a002b7ff789ae164b521a1a815d
:10431c001b6998890df047f810f0020f03d0114a71
:10432c001389013b13810f4f398978680af06cf8b7
:10433c003e893b6998890df036f810f0030318bfdd
:10434c00012333449bb2064a1380044a1268134477
:10435c002a69526893423ff461aefee7dcf14120da
:08436c0002f14120acf04120f8
:020000040000fa
:020000040040ba
:104374002de9f04f89b0856aab6803b1fee7814649
:104384009346506853892b2b18d90378022b15d1e7
:1043940099f8324064b109f1320300f11b021c4464
:1043a40013f8016f12f8011f8e4207d1a342f7d10f
:1043b40040680cf0e7ff2b68984207d00023ab60fd
:1043c400584608f0c9fe09b0bde8f08fbb4b002287
:1043d4001a605a601a81bbf80a302b2beed9dbf82d
:1043e4000430ab60bbf808409046f0235f467a89fe
:1043f4009a4214d89b1a9bb2a41aa4b23f68002f05
:10440400f5d1dbe7ec246c23f0e74ff000086c24d3
:104414002c23ebe74ff00108ec246c23e6e77e68dd
:104424001a46f15ca34280f05481ff2900f05181c7
:104434000195cdf80880cdf80c90cdf810b0b6e019
:104444003a68002a00f0f28152681278b7e0042a30
:104454003ed190464ff006099d1c12fa85f5adb287
:104464000022079202331ffa83fb944b09eb030ae1
:10447400934b03eb890305931af8013b002b39d1c5
:104484004246042a28bf04225b46d2b207a9384612
:1044940009f022feb8f1040f6ed918f0030f6ad1a7
:1044a40001230af8013c07980cf072fc059b43f8c1
:1044b400040b0593a8f104085ffa88f80bf1040bc8
:1044c4001ffa8bfb09f10109b9f10a0fd4d1fee7f8
:1044d400fee7032a04d94ff007094ff00408bbe7ad
:1044e400fee712f0030f14d19d1c12fa85f5adb24c
:1044f400002a39d17a89aa4250d8ab1a9bb2a21a9f
:1045040094b2a34280f0ff803f68002f45d07e68bc
:1045140045e0fee7042a03d190464ff003099be7e8
:10452400fee7012a03d190464ff0000994e7fee725
:10453400012a03d190464ff001098de7fee7042ad2
:1045440003d190464ff0020986e7fee7042a03d11f
:1045540090464ff004097fe7fee7042a03d1904612
:104564004ff0050978e7fee7082a28bf082290469d
:104574004ff0080974e7fee7b8f1040f09d09df87d
:104584001c004e4a012102f809104d4a42f8290044
:10459400b0e707980cf0f6fef3e7fee72b461a4661
:1045a400f15ca34280f0b780ff2900f08b805d1c92
:1045b400adb27889a8427ff643af324452783b29a2
:1045c40000f22f8101a050f821f000bff94440000f
:1045d4005344400027484000d74440002748400047
:1045e40027484000e744400027484000274840004f
:1045f40027484000274840002748400027484000fb
:1046040027484000274840002748400027484000ea
:1046140027484000274840002748400027484000da
:1046240027484000274840002748400027484000ca
:1046340027484000274840002748400027484000ba
:1046440027484000274840002748400027484000aa
:10465400274840002748400027484000274840009a
:10466400274840002748400027484000274840008a
:10467400274840002748400027484000274840007a
:10468400274840002748400027484000274840006a
:10469400274840002748400019454000274540006e
:1046a4003545400043454000274840002748400026
:1046b40027484000514540005f454000f8f0412044
:1046c400e0ef4120019dddf80880ddf80c90ddf875
:1046d40010b06b4b1b786bb16a4b1b68684a0021a6
:1046e4001170012b3ff48eae022b3ff48eae032be0
:1046f4003ff490aeb8f1000f00f09a804ff000083c
:104704006c242c2372e6019dddf80880ddf80c9002
:10471400ddf810b0dde7019dddf80880ddf80c90d0
:10472400ddf810b0d5e72e7b012e08d0f31edbb2e6
:10473400022b3ff643ae484606f0eef83ee6d9f8c3
:1047440028400023a362e3624d4bdb7813b14d4b49
:10475400db6823634a4b1b79002b2ad0494b1b6926
:104764006363474b5b793bb3464b5b69a363a368c5
:104774001b696362424b9b7903bba373404bdb7998
:104784001bbb3f4b1b7a33b33e4b186a0cf000fb48
:10479400079007a900200bf0c9fd394b5b7ad3b110
:1047a400384b586a0cf0f4fa079007a901200bf073
:1047b400bdfd236b5b08d3e7236bd7e7314b9869c7
:1047c4000cf0e6faa0623346d7e72e4bd8690cf01a
:1047d400dffae062d5e748460bf097ffeee52a7b67
:1047e400d31edbb2022b02d9012a7ff4e7add9f83c
:1047f400286048460bf057fd234c2146484609f0f3
:1048040099fe214648460cf051fd214648460cf0dd
:1048140053fd0c2130460cf08ffc484606f0dafdbf
:10482400cce5023312fa83f39db263e60022c6e6b6
:10483400134b5b78002b3ff4c1ad124b1b79052b56
:104844003ff471af062bcad0022b7ff4b7ad2b7b9c
:10485400062b7ff4b3ad00236b83094b9b78002bad
:104864003ff4acadd9f82840064b98680cf090faa8
:104874002062a3681b696362484605f07dfd9de5df
:0c488400f8f04120e0ef41201414410046
:020000040000fa
:020000040040ba
:104890002de9f04fb9b0964b1b6823b1944b1c68bf
:1048a000dff888b2ffe1934911f8012f924807f031
:1048b000e5ff38b18e4b1c68002cf1d1012039b0d6
:1048c000bde8f08f8d4b1b78002bf3d10cf0d8fc9a
:1048d000012803d8894b01221a70ebe70cf0cafcbf
:1048e000874909f0c7fbf5e74ff000036375854e74
:1048f00004f1120803273a46316840460bf0ccfe1b
:10490000002800f0c6810c365e45f4d100232382d6
:10491000c5e1316804f112000cf00ffb18b973689f
:1049200031462046984700232382b8e11b281dd832
:10493000072840f27081a0f10803132b00f26b816d
:10494000dfe813f0340169013700690169013700bc
:104950006901690169016901690169016901690107
:104960006901690169016901690164017f2840f0f9
:104970005281e369a269934240f29181511c5b1a12
:1049800005d0d018517802f8011b9042fad1e269a3
:10499000511ee161002102f8011c04f17107a269b6
:1049a000594938460cf07cf933683946284698470f
:1049b00075e104f12009e3694b4526d0336853497a
:1049c00028469847e36900211970c4f81890c4f884
:1049d0001c90202206a80cf035fb67680397512233
:1049e00049460ea80cf094fc082206a90ea808f06f
:1049f000fbfa029070b923681b684549384698470e
:104a0000336844492846984749e133684249284673
:104a1000984744e1029b002b05dc23681b683f4953
:104a200003989847ece7d4f8cc30d4f8d070bb4268
:104a300031d07a68c4f8d0201360d4f8cc30d4f8e0
:104a4000d0205a605122494607f108000cf060fc62
:104a5000d4f8cc302bb33b60d4f8d0307b601f60ef
:104a6000d4f8cc305f60c4f8cc700023c4f8d430e4
:104a7000ddf818802a4f07f1240a396840460cf007
:104a80005cfaa8b10c375745f7d1264b0495cdf801
:104a900014909a4651e00023c4f8cc30c4f8d030ca
:104aa000d0e7c4f8cc70c4f8d0703f607f60dce71a
:104ab000029b082b06dd23685b6808221a490398cd
:104ac00098479de77b6806aa02992046984797e792
:104ad000049d23685b6808221349039898478fe771
:104ae000049d7b6806aa02992046984788e700bf84
:104af0000cf141201cef4120a40f4100876f4120a1
:104b00009c084000d8f140007809400004084000ab
:104b1000c0084000600940003408400030094000ef
:104b20007c0741003ceb4120f808400020f24000a7
:104b30000af1180a694b9a4534d0d0465af8147cc9
:104b4000002ff5d05af8085c9db15122059923a891
:104b50000cf0defb5af8043c0093512323aa2146b3
:104b60003846a84700bb082206a923a808f03cfa4b
:104b70000290029b082babdc58f8147c58f8185ca8
:104b8000002dd5d0ddf818904ff000083968484660
:104b90000cf0d3f90028a3d008f101080c37a84580
:104ba000f4d1c5e7049d38e7049d29e7a36904f122
:104bb0002002934273d9e06983421cd25a1ec31a61
:104bc0000138517802f8011b9042fad1a269013aea
:104bd000a261e269511ee161002102f8011c04f1a9
:104be0007107a2693e4938460cf05af833683946d5
:104bf0002846984753e033683a4928469847a369be
:104c0000013ba361e369013be36148e01b23a3741b
:104c10000123238243e0e26904f12008a2eb0803a8
:104c20004f2b29dca369d31a22d0d01a12f8011c09
:104c300002f801198242f9d1e269511ce1610021b7
:104c40005170a2690132284904f172000cf028f871
:104c5000214601f8717f336828469847a3691f7081
:104c6000a3690133a361e269934218d9e36116e0b5
:104c7000002384f87230ebe733681c4928469847d4
:104c8000c4f81880c4f81c8033681949284698472e
:104c900005e0e660e668b3689d423ff43aaea4687a
:104ca000002c3ff40bae26686568f36828469847e9
:104cb0000028f4d03369284698470746b4f91030e5
:104cc000002b3ff433aee218907401331db22582fd
:104cd000032d3ff409ae022ddcdce0e7fceb4120c4
:104ce0006409400070094000840940008c094000bc
:044cf0006009400017
:020000040000fa
:020000040040ba
:104cf4002de9f04f8fb005930023adf836300691bf
:104d0400002936d004461646b0f86220c08e217eb3
:104d14008b1edbb2022b02d9072940f0e8815eb179
:104d2400b4f86630b34225d3b4f86830072b2ad8d8
:104d3400002b3cd0236f6bb352081346824228bf2a
:104d440003460793b4f86890e56e002d3dd0aa465b
:104d54002d68002dfbd19af80c3013f0020f0cbf14
:104d640000200c20b4f86a80baf80a20424532d0f8
:104d7400fee7fee7a37f63f07f03a3774ff0ff30e6
:104d84000fb0bde8f08fa37f63f07f03a3774ff0ec
:104d9400ff30f5e7e36e4bb152081346824228bf59
:104da40003460793b4f86890e56ed0e7fee7236ff7
:104db40003b1fee7e36e002bfbd152081346824297
:104dc40028bf03460793b4f86890b4f86a70002fbc
:104dd40000f08681fee7baf80810079a521a9b0081
:104de40003f00403d21a121a92b2b8f1000f12d0cf
:104df4004346b04528bf33469bb2a8eb030080b2bc
:104e040010b1b04500d2fee7adf83600d21a92b226
:104e14009846d34600e0ab46002a18bf464540f208
:104e2400e080002900f0dd80a6eb080b9345a8bfc5
:104e340093461ffa8bf7059911f0010f1cd001233b
:104e44000293019100940df136033946032009f0d1
:104e540077f90990002800f03e81baf80a30bdf8cd
:104e640036201344aaf80a303a46069b03eb08019d
:104e740040680cf011f80be001223946032004f0dd
:104e8400c5f80990002800f02681069b434443603e
:104e94004744bfb209980cf043f800eb09031ffa2a
:104ea40083f9d3469fe0b5fa85f35b090293059b2a
:104eb400019300940df13603079a4146002009f04e
:104ec4003ff9834690b14389434506d34246069b46
:104ed400d91940680bf0e0ff51e0fee7fee70898bf
:104ee40008f03af902e0584608f036f9a37f63f077
:104ef4007f03a377099b13b1184608f02df915b168
:104f040028460cf07ff8b4f86830002b00f0da8003
:104f1400236f002b40f0d980e36e002b40f0d88043
:104f2400fee7fee70546b8441ffa88f7be4246d9b5
:104f34009a46a6eb07081ffa88f8079b984528bfee
:104f44009846059b13f0010fadd1bdf83630002b08
:104f5400c4d101224146002004f058f808900028ea
:104f6400c4d0069b3b44436000221146104604f023
:104f74004df883460028b2d008990af094fd5846ab
:104f84000bf0ceff00eb09031ffa83f9b9f1080f08
:104f9400a9d8e36d002200923b445946204607f00d
:104fa4000bfa03460028a1d0bdf836204281002d1b
:104fb400b8d0baf1000fb4d0caf80000b3e7ddf8f6
:104fc4002880ddf82ca09b46b8f1000f5ed0daf8fb
:104fd4000470f7b13b8943443b813b6863b13f684c
:104fe400f8e747460995be42eed90025cdf828805a
:104ff400cdf82ca0aa469ce77b897868424606999e
:1050040018440bf049ff7b8943447b813f68002fa0
:10501400e0d1baf808304344aaf80830baf80a30a4
:10502400434500d2fee7a3eb0803aaf80a30bdf813
:105034003630a4f86a30099b5bb1099f3946daf827
:1050440004000af030fdbaf808303a891344aaf88b
:105054000830caf80050e36d3344e365b4f86630b1
:105064009b1ba4f86630a4f86890b9f1000f01d036
:10507400236fabb1bbf1000f20d0dbf81030fbb1d4
:10508400059a12f0020f0fd0002079e6bdf83630f1
:10509400a4f86a30099ba3b3baf1000fcdd1fee79f
:1050a400e36e002be6d1fee79c8908200cf07cf926
:1050b400dbf8103004439c81002061e600205fe6a9
:1050c40000205de64ff0ff305ae64ff0ff3057e620
:1050d4004ff0ff3054e6a37f63f07f03a37712e71a
:1050e40046b1b8464ff0000acdf824a07de76ff032
:1050f4000c0045e6bdf83630a4f86a300025ab460e
:0c510400aa46baf1000fa4d1e566a4e7aa
:020000040000fa
:020000040040ba
:105110002cf041201c0000000000000008f041209d
:10512000240000000000000094e84120000100007d
:1051300000000000d4f041200c000000000000003e
:1051400004f14120080000000000000030c84120a8
:105150000010000000000000d8ee412044000000d4
:105160000000000044ed412080000000000000002d
:105170009caf41200400000000000000876f412028
:10518000010000000000000024eb4120c0000000ee
:10519000000000001cef412004000000000000009f
:1051a00024f14120040000000000000030d841201c
:1051b000000a0000000000000cf14120080000007f
:1051c0000000000038f14120040000000000000051
:1051d00093e84120010000000000000094e9412014
:1051e000c800000000000000e0f0412018000000ae
:1051f0000000000058f24120010000000000000003
:105200003cf141200400000000000000a4ec41201b
:10521000a00000000000000020ef4120400000003e
:105220000000000040f141200800000000000000e4
:1052300028ee4120600000000000000048f14120fd
:105240002c0000000000000048f041201400000085
:105250000000000074f14120040000000000000084
:105260005cf04120280000000000000078f141209f
:10527000080000000000000084f041202800000029
:1052800000000000c4ed41206400000000000000a8
:1052900080f14120040000000000000064f2412081
:1052a0000400000001000000aaaaaaaa84f141207b
:1052b0000800000000000000000040200000010085
:1052c0000000000068f2412004000000010000001e
:1052d0000000cdabf8f041200a0000000000000003
:1052e000e0ef412028000000000000008cf1412088
:1052f000040000000000000090e6412003020000ce
:105300000000000014f1412008000000000000002f
:1053100030e24120600400000000000059f241200a
:10532000010000000000000090f141201c0000007e
:1053300000000000886f41201440000000000000c1
:1053400000004120876f00000000000060ef412056
:1053500040000000000000005af24120010000005f
:1053600000000000acf14120080000000000000037
:105370005bf241200100000000000000b4f1412078
:1053800004000000000000006cf241200400000056
:10539000010000006e1900005cf2412003000000d3
:1053a00000000000b8f141201800000000000000db
:1053b00062f24120020000000100000000c0000075
:1053c000d0f1412008000000000000005ff2412001
:1053d000010000000000000002f141200200000076
:1053e0000000000060f24120010000000000000009
:1053f000d8f141200c00000000000000acf041207a
:105400001400000000000000e4f14120040000004e
:105410000000000070f241200200000001000000c6
:1054200000c0000054f24120020000000000000013
:10543000e8f14120100000000000000056f2412079
:105440000200000000000000f8f141200800000008
:1054500000000000c0f04120140000000000000027
:105460001cf14120080000000000000000f2412073
:105470001000000000000000e4eb4120c00000002c
:105480000000000010f241200c00000000000000ad
:1054900061f2412001000000000000005cea4120b0
:1054a000c8000000000000001cf2412024000000a1
:1054b00000000000a0ef41204000000000000000bc
:1054c00028f141201000000000000000a0af4120a2
:1054d000901800000000000040f241200c00000085
:1054e000000000004cf24120040000000000000019
:1054f00088ee4120500000000000000050f24120e2
:105500000400000000000000000000000000000097
:020000040000fa
:020000040040ba
:105510002de9f04f2ded0a8b92ed008b8db01e46dc
:10552000b5eec08b0b69d1f808a0cc680590f1ee00
:1055300010fad1e9009b069307d419f0040f30d17b
:1055400019f008052fd0202302e02d23b1ee488b5f
:1055500023700af1ff32012518ee903a18ee100a76
:1055600023f00041bc4b4ff00008994208bf404572
:105570001bd1413e192e94bfb849b94960190bf0af
:10558000c1feb7480bf096fccdf80090024653469a
:105590000598214607f0a4fd0db0bdec0a8bbde8cf
:1055a000f08f2b23d4e75246d6e780458b41a6f1f6
:1055b0004103039308d2192b94bfaa49aa49601941
:1055c0000bf0a0fea848dde730216155b5ee408b19
:1055d0000399b7ee009b192905f101038cbf7821cf
:1055e0005821f1ee10fae15405f10205a2f1020290
:1055f00040f0ec80b0ee49bbb0ee48cbbbf1000f01
:105600009fed8fabacbf5b461823591c002700bf32
:105610008cee0b0bcde90731049205f03dffbbf199
:10562000000f00ee4bcbdde907312bee0abb049aed
:1056300007f1010704dab5ee40cbf1ee10fa02d023
:105640008f42e5d15f1cb2ee007b2bee077bb4ee00
:10565000c7cbf1ee10fa00f1dc80b4ee47cbf1eeef
:1056600010fa09d1bdeec00b9fed776b10ee103a2a
:1056700013f0010f06fe077b38ee078b18ee903a09
:1056800018ee10ca744923f000400023884208bf76
:105690009c453ff46eaf06990539a942079140f247
:1056a0001481794208912e46ae461f46049300bfee
:1056b00088ee090bcde90a23cdf824e005f0ecfed5
:1056c000fdeec07bdde909e2b0ee40bb17ee900acb
:1056d0000b9b002840f0a080002b00f09d8001373c
:1056e00008990bee498b013b8b4229ee0a9b03d0b4
:1056f00007998e42b646dbd3049bcbb9002f40f30b
:10570000e580bbf1000f40f3e18019f0010f40f09c
:10571000dd80a3192e211970b9192144302000bf52
:1057200003f8010f8b42fbd13e44ff4301363a445c
:10573000069b0021a019013b88450170b8bfc8f144
:105740000008e1544ff00107b8bf01214ff00a0be8
:1057500003f1ff3cb8f1000f40f0a580012f00f0ed
:10576000a28000290cbf2b212d2104f80c100399d5
:10577000023b192904eb03018cbf4ff0700c4ff072
:10578000500c9e4281f800c003da03920bf0bafd80
:10579000039a09f00303022b11d11744033f002f92
:1057a0000ddd20460bf086fbe319a84280f28980cc
:1057b0003a46302160190bf045fc4ff0000a2046b4
:1057c000e0e600bf08f10108b0ee479b39ee097b27
:1057d000b4eec78bf1ee10faf4d5b6ee007b9fed78
:1057e0001c6b00bfb4eec98bf1ee10fa7ff502af6f
:1057f00029ee075bb5ee405bf1ee10fa08bf29ee2b
:10580000069b08f1ff3808bf28ee068b29ee079ba0
:10581000e8e79fed0d7b2fe7049941b93bb14ff0cd
:105820002e0c012104f80ec00136013a0491e11951
:1058300004eb060c31444ff0300e19e0aff300805a
:10584000000000000000b03f000000000000000069
:1058500000000000000050430000f07f900a41006b
:10586000940a4100980a41009c0a41000cf801eb9f
:105870008c45fbd1f119d71b039a0928d4bf3030ce
:105880005730192a0ad840f02002613a192a05d85f
:10589000cde909310bf0b4fcdde909317a1e605421
:1058a0004e1c00271ce7634698fbfbfe0eeb8e0c9c
:1058b000a8eb4c0c0cf1300c04f803c0f046013f8f
:1058c00046e7225c1a5401386fe72e4619f0100f94
:0c58d0003ff42eaf2e23a355013629e72c
:020000040000fa
:020000040040ba
:0458dc0000befee725
:020000040000fa
:020000040040ba
:1058e0002de9f04f2ded0a8b92ed009b8fb0b5eeb8
:1058f000c09b05938b680493f1ee10fa0b69cd6899
:105900000690d1e900a78b46089308d41af0040f3b
:1059100034d11af00803039332d0202302e02d2360
:10592000b1ee499b2b70049b03f1ff3901230393d4
:1059300019ee903a19ee101a23f00042c04b0024e1
:105940009a4208bfa1421ed1059b0398413b192be7
:1059500094bfbc49bc4928440bf0d4fc28460bf04a
:10596000a9fa049bcdf800a002462946069807f044
:10597000b7fb0fb0bdec0a8bbde8f08f2b23d1e74e
:10598000ddf81090d4e78c42934108d2059b039830
:10599000413b192b94bfad49ad492844dce7b5ee36
:1059a000409bf1ee10fab2ee04cbb7ee00ab40f044
:1059b000c08005980bf01dfc002fc0b2c0f26281c0
:1059c000672840f0d580002f08bf0127231dc0f2b3
:1059d000d180bc4280f2ce80002c4ff066080cdaf9
:1059e000b8f1660f07f1010707d1002c02dab7ee14
:1059f00000ab0024672800d027440023b0ee4a8b78
:105a0000b0ee49bb8bee080b0993079005f044fdff
