:020000040000fa
:020000040040ba
:10000000f8ef452005884000a5554000755940008f
:100010006b1641006f16410073164100000000008e
:10002000000000000000000000000000a10a4100e4
:10003000cde4400000000000d1e440006103410035
:100040008516410085164100851641008516410040
:100050008516410085164100851641008516410030
:1000600085164100000000008516410085164100fc
:10007000851641008516410015e1400085164100b6
:100080008516410085164100851641008516410000
:10009000851641008516410085164100bd094100c5
:1000a00085164100851641008516410085164100e0
:1000b00085164100851641008516410085164100d0
:1000c00085164100851641008516410085164100c0
:1000d00085164100851641008516410035d940003e
:1000e00085164100851641008516410085164100a0
:1000f0008516410085164100851641008516410090
:10010000851641008516410085164100851641007f
:100110008516410000000000000000000000000003
:10012000851641008516410085164100851641005f
:10013000851641008516410000000000851641002b
:10014000851641008516410085164100851641003f
:10015000851641008516410085164100851641002f
:080160008516410085164100df
:020000040000fa
:020000040040ba
:10016800f8b500bff8bc08bc9e467047e5f74000ec
:10017800f8b500bff8bc08bc9e467047c1f7400000
:020000040000fa
:020000040040ba
:08018800e8670000010000001f
:020000040000fa
:020000040040ba
:100190002f2f00005b4150505d20444e533a207297
:1001a00065736f6c76696e6720686f73742e2e2e80
:1001b0000a0000005b4442475d205b4150505d20d7
:1001c000444e53207265736f6c76656420746f3a89
:1001d00020000000307800005b4150505d20444e0c
:1001e00053207265736f6c7574696f6e2046414958
:1001f0004c45440a000000005b4150505d204372b2
:10020000656174696e672054435020736f636b653a
:10021000742e2e2e0a0000005b4150505d20736f3b
:10022000636b65742829204641494c45440a000007
:100230005b4442475d205b4150505d20536f636bd0
:10024000657420637265617465642c2066643a206d
:10025000000000005b4442475d205b4150505d2040
:10026000436f6e6e656374696e6720746f20706f84
:1002700072743a20000000005b4442475d205b41fd
:1002800050505d20636f6e6e65637428292072651f
:100290007475726e65643a20000000005b4442474a
:1002a0005d205b4150505d20636f6e6e656374200e
:1002b0006572726e6f3a20005b4150505d20436f53
:1002c0006e6e6563746564204f4b210a0000000068
:1002d0005b4150505d2053656e64696e67204854e1
:1002e0005450204745542e2e2e0a00005b444247ae
:1002f0005d205b4150505d2053656e64206c656edf
:100300006774683a200000005b4442475d205b410f
:1003100050505d2073656e64282920726574757273
:100320006e65643a200000005b4442475d205b41fb
:1003300050505d2073656e64206572726e6f3a2056
:10034000000000005b4150505d2057616974696e88
:100350006720666f7220726573706f6e73652028f8
:1003600072656376292e2e2e0a0000005b415050e4
:100370005d2043616c6c696e672072656376282925
:100380002e2e2e0a000000005b4442475d205b4198
:1003900050505d20726563762829207265747572ed
:1003a0006e65643a200000005b4150505d2072652c
:1003b00063763a20636f6e6e656374696f6e206357
:1003c0006c6f736564206279207365727665720a5a
:1003d000000000005b4442475d205b4150505d20bf
:1003e00072656376206572726f722c206572726e10
:1003f0006f3a20005b4150505d2072656376207437
:10040000696d656f7574206f72206572726f722ce2
:1004100020636c6f73696e670a0000005b41505087
:100420005d202d2d2d2052656365697665642064fd
:10043000617461202d2d2d0a000000000a5b4150df
:10044000505d202d2d2d20456e6420646174612047
:100450002d2d2d0a000000005b4150505d20436ca3
:100460006f73696e6720736f636b65742e2e2e0a2f
:10047000000000005b4150505d20436f6e6e65636d
:1004800074696f6e20436c6f7365640a000000002e
:100490004e6574776f726b20696e74657266616306
:1004a00065206c696e6b2069732075700d0a000001
:1004b000495020416464726573733a2025642e2587
:1004c000642e25642e25640d0a000000436f756cb0
:1004d00064206e6f742070617273652055524c20d9
:1004e000272573270d0a0000474554202f25732028
:1004f000485454502f312e310d0a486f73743a20ee
:1005000025730d0a436f6e6e656374696f6e3a20d2
:10051000636c6f73650d0a0d0a00000030313233d1
:1005200034353637383941424344454600000000ef
:1005300055736167653a206f70656e75726c203c0b
:1005400075726c3e0d0a000045783a206f70656e3a
:1005500075726c20687474703a2f2f7777772e67d6
:100560006f6f676c652e636f6d2f0d0a00000000c2
:100570003a2061707020636f6d6d616e647300006e
:10058000617070004661696c656420746f206372ed
:100590006561746520544350495020436f6d6d610f
:1005a0006e64730d0a0000006f70656e75726c00ea
:1005b0003a20436f6e6e65637420746f20612075fe
:1005c000726c20616e6420646f2061204745540086
:1005d0005b4442475d203d3d3d205359535f496e8a
:1005e000697469616c697a65205354415254203da5
:1005f0003d3d0a005b4442475d205b494e49542d16
:1006000030315d204546432c20434c4b2c20504933
:100610004f2c205443302c204253502c2055534112
:1006200052543120646f6e650a0000005b444247fb
:100630005d205b494e49542d30325d205761746313
:1006400068646f67732064697361626c65640a0033
:100650005b4442475d205b494e49542d30335d2059
:100660005359535f54494d4520696e697469616cf3
:10067000697a65640a0000005b4442475d205b497b
:100680004e49542d30345d205359535f434f4e53e0
:100690004f4c452c205359535f434d442c20535904
:1006a000535f444542554720696e697469616c69be
:1006b0007a65640a000000005b4442475d205b49a4
:1006c0004e49542d30355d2043616c6c696e672056
:1006d0006c7769705f6e6574776f726b5f696e6956
:1006e0007428292e2e2e0a005b4442475d205b4968
:1006f0004e49542d30365d206c7769705f6e65749d
:10070000776f726b5f696e697428292072657475e2
:10071000726e6564204f4b0a000000005b44424744
:100720005d205b494e49542d30375d20435259506e
:100730005420696e697469616c697a65640a0000a5
:100740005b4442475d205b494e49542d30385d2063
:1007500041505020696e697469616c697a65640af8
:10076000000000005b4442475d205b494e49542d28
:1007700030395d204e56494320696e697469616c59
:10078000697a6564202d205359535f496e697469f5
:10079000616c697a6520434f4d504c4554450a00c1
:1007a0000d0a2d2d2d2d2d2d2d20537570706f724e
:1007b00074656420636f6d6d616e642067726f7520
:1007c0007073202d2d2d2d2d2d0000000d0a202ab7
:1007d0002a2a2000202a2a2a000000000d0a2d2d96
:1007e0002d2d2d2d2d2d2d2d204275696c742069f8
:1007f0006e20636f6d6d616e6473202d2d2d2d2d18
:100800002d2d2d2d2d0000000d0a00000d0a556e16
:100810006b6e6f776e20636f6d6d616e64206772b3
:100820006f75702e205472792068656c700d0a0007
:1008300008200800080000000d0a3e001b5b25642c
:10084000430000001b5b2564440000000d0a202ac1
:100850002a2a205175697474696e6720746865204e
:10086000436f6d6d616e642050726f636573736f5b
:10087000722e20427965202a2a2a0d0a00000000e3
:100880000d0a202a2a2a2053797374656d20526537
:10089000626f6f74202a2a2a0d0a000020092c009a
:1008a0004661696c656420746f206372656174656c
:1008b0002074686520436f6e736f6c6520415049ea
:1008c0000d0a0000202a2a2a20436f6d6d616e6494
:1008d0002050726f636573736f723a20506c65615c
:1008e0007365207479706520696e206120636f6d77
:1008f0006d616e642a2a2a0d0a0000000a0d205438
:100900006f6f206d616e7920617267756d656e74b1
:10091000732e204d6178696d756d2061726773204b
:10092000737570706f727465643a202564210d0ac6
:1009300000000000202a2a2a20436f6d6d616e643a
:100940002050726f636573736f723a20756e6b6eb1
:100950006f776e20636f6d6d616e642e202a2a2a78
:100960000d0a00003e000000081b5b4b25731b5b5b
:1009700025644400081b5b4b000000001b5b4b25fb
:10098000731b5b256444000025731b5b25644400d6
:10099000202a2a2a20436f6d6d616e642050726f89
:1009a000636573736f722062756666657220657821
:1009b0006365656465642e2052657472792e202a01
:1009c0002a2a0d0a00000000726573657400000099
:1009d0003a20526573657420686f737400000000dc
:1009e000710000003a207175697420636f6d6d614c
:1009f0006e642070726f636573736f720000000025
:100a000068656c70000000003a2068656c7000003a
:100a10001b5b41001b5b42001b5b43001b5b4400f4
:100a20001b5b317e000000001b5b347e0000000079
:100a30005359535f434d445f5441534b530000009f
:100a40004150505f5461736b7300000049444c4542
:100a5000000000003230382e36372e3232322e323d
:100a60003232000074637069705f7468726561642b
:100a700000000000ffffffffffff00005b44424754
:100a80005d205b54585d205061636b657420736515
:100a90006e742c206c656e3a200000005b44424767
:100aa0005d205b54585d205453522061667465721a
:100ab0002073656e643a20005b4442475d205b52c0
:100ac000582d21215d20706275665f616c6c6f63cb
:100ad000204641494c4544206f6e20696e69746917
:100ae000616c20706f70756c617465210a00000084
:100af0005b4442475d205b52582d30315d20496e8a
:100b0000697469616c205258207062756673206147
:100b10006c6c6f63617465643a2000005b4442470b
:100b20005d205b52585d205061636b657420726577
:100b30006365697665642c206c656e3a2000000060
:100b40005b4442475d205b45494e49542d30315d41
:100b50002065746865726e657469665f696e697434
:100b6000282920656e7465720a0000005b444247c4
:100b70005d205b45494e49542d30325d2043616c08
:100b80006c696e6720676d61635f6c6f775f6c6522
:100b900076656c5f696e697428292e2e2e0a000016
:100ba0005b4442475d205b474d41432d30315d2022
:100bb000676d61635f6c6f775f6c6576656c5f69ad
:100bc0006e6974282920656e7465720a0000000041
:100bd0005b4442475d205b474d41432d30325d20f1
:100be00044697361626c696e672054582f525820b3
:100bf000616e6420696e74657272757074730a0038
:100c00005b4442475d205b474d41432d30335d20bf
:100c10004d41432061646472657373207365740a87
:100c2000000000005b4442475d205b474d41432d7f
:100c300030345d205374617274696e672050485976
:100c400020696e697420616e64206175746f2d6e09
:100c500065676f74696174696f6e2e2e2e0a0000cd
:100c60005b4442475d205b5048592d30315d204543
:100c70006e61626c696e6720474d4143206d616e05
:100c80006167656d656e7420706f727420284d50b9
:100c900045290a005b4442475d205b5048592d308e
:100ca000325d204d444320636c6f636b2064697632
:100cb00069646572207365740a0000005b444247f2
:100cc0005d205b5048592d30335d205048592049f4
:100cd00044313a20000000005b4442475d205b50f5
:100ce00048592d30345d20504859204944323a202b
:100cf000000000005b4442475d205b5048592d21b5
:100d0000215d204d44494f207265616420726574f5
:100d100075726e7320307846464646202d20504826
:100d200059206e6f7420726573706f6e64696e67a0
:100d3000210a00005b4442475d205b5048592d303a
:100d4000355d20526573657474696e67205048592b
:100d50002e2e2e0a000000005b4442475d205b50af
:100d600048592d30365d205048592072657365749e
:100d700020636f6d706c6574652c204243523a207d
:100d8000000000005b4442475d205b5048592d3015
:100d9000375d205374617274696e67206175746f7a
:100da0002d6e65676f74696174696f6e2e2e2e0ae1
:100db000000000005b4442475d205b5048592d30e5
:100dc00037615d205374696c6c2077616974696e5a
:100dd000672e2e2e204253523a2000005b44424799
:100de0005d205b5048592d30385d204253522061c0
:100df00066746572206175746f6e65673a200000d5
:100e00005b4442475d205b5048592d21215d2041c4
:100e100075746f2d6e65676f74696174696f6e208c
:100e200054494d454f555420283573290a00000078
:100e30005b4442475d205b5048592d3038625d204d
:100e4000425352202872652d7265616420666f726c
:100e5000206c696e6b293a20000000005b44424719
:100e60005d205b5048592d21215d204c696e6b201f
:100e70004e4f54207570202d20636865636b2045ac
:100e8000746865726e6574206361626c65210a0026
:100e90005b4442475d205b5048592d30395d204c02
:100ea000696e6b2069732055500a00005b4442470d
:100eb0005d205b5048592d31305d20414e4c5041f2
:100ec0005220286c696e6b20706172746e6572209e
:100ed0006162696c697479293a2000005b44424779
:100ee0005d205b5048592d31315d20436f6e66693e
:100ef00067757265643a203130304d6270732046f8
:100f0000756c6c204475706c65780a005b444247d0
:100f10005d205b5048592d31315d20436f6e66690d
:100f200067757265643a203130304d6270732048c5
:100f3000616c66204475706c65780a005b444247ba
:100f40005d205b5048592d31315d20436f6e6669dd
:100f500067757265643a2031304d62707320467552
:100f60006c6c204475706c65780a00005b444247e5
:100f70005d205b5048592d31315d20436f6e6669ad
:100f800067757265643a2031304d62707320486134
:100f90006c66204475706c65780a00005b444247bb
:100fa0005d205b474d41432d21215d205048592054
:100fb000696e69742f6175746f6e6567204641496b
:100fc0004c45440a000000005b4442475d205b47fb
:100fd0004d41432d30355d2050485920696e69746c
:100fe0002f6175746f6e6567204f4b0a000000001b
:100ff0005b4442475d205b474d41432d30365d20c9
:10100000496e697469616c697a696e672052582ffc
:1010100054582064657363726970746f72207269ca
:101020006e67730a000000005b4442475d205b4727
:101030004d41432d30375d20525820646573632045
:10104000626173653a2000005b4442475d205b4764
:101050004d41432d30385d20545820646573632022
:10106000626173653a2000005b4442475d205b4744
:101070004d41432d30395d2054582f525820656e14
:1010800061626c65640a00005b4442475d205b4717
:101090004d41432d31305d20474d414320696e74f1
:1010a0006572727570747320656e61626c65640a36
:1010b000000000005b4442475d205b474d41432deb
:1010c00031315d20474d41435f4e43523a2000008d
:1010d0005b4442475d205b474d41432d31325d20eb
:1010e000474d41435f4e434647523a2000000000bf
:1010f0005b4442475d205b474d41432d31335d20ca
:10110000474d41435f524251423a20005b444247bf
:101110005d205b474d41432d31345d20676d616338
:101120005f6c6f775f6c6576656c5f696e6974285c
:101130002920636f6d706c6574650a005b444247db
:101140005d205b45494e49542d30335d20676d610c
:10115000635f6c6f775f6c6576656c5f696e6974f1
:1011600028292072657475726e65640a000000009b
:101170005b4442475d205b45494e49542d30345d08
:10118000204372656174696e672052582073656de3
:101190006170686f72652e2e2e0a00005b44424714
:1011a0005d205b45494e49542d21215d2052582038
:1011b00073656d6170686f726520637265617469d3
:1011c0006f6e204641494c45440a00005b4442474b
:1011d0005d205b45494e49542d30355d20525820e5
:1011e00073656d6170686f726520637265617465a7
:1011f000640a00005b4442475d205b45494e495408
:101200002d30365d204372656174696e6720474ded
:101210004143205258207461736b2e2e2e0a000019
:101220005b4442475d205b45494e49542d21215d79
:1012300020474d4143205258207461736b206372e4
:10124000656174696f6e204641494c45440a00004f
:101250005b4442475d205b45494e49542d30375d24
:1012600020474d4143205258207461736b206372b4
:1012700065617465640a00005b4442475d205b451c
:10128000494e49542d30385d2065746865726e652d
:101290007469665f696e6974282920636f6d706c6c
:1012a000657465204f4b0a004d434850424f4152f0
:1012b000445f4300474d4143000000005b44424708
:1012c0005d205b4c5749502d30315d206c77697043
:1012d0005f6e6574776f726b5f696e697428292021
:1012e000656e7465720a00005b4442475d205b4c8a
:1012f0005749502d30325d2043616c6c696e672018
:1013000074637069705f696e697428292e2e2e0ac5
:10131000000000005b4442475d205b4c5749502d64
:1013200030335d2074637069705f696e6974282959
:101330002072657475726e6564204f4b0a00000060
:101340005b4442475d205b4c5749502d30345d2053
:1013500043616c6c696e67206e657469665f616479
:10136000642829202d3e2065746865726e65746955
:10137000665f696e697428292e2e2e0a000000000f
:101380005b4442475d205b4c5749502d30355d2012
:101390006e657469665f616464282920726574757e
:1013a000726e65640a0000005b4442475d205b4c3e
:1013b0005749502d30365d206e657469662073651f
:1013c000742061732064656661756c7420616e645d
:1013d0002055500a000000005b4442475d205b4cf2
:1013e0005749502d30375d205374617274696e67b0
:1013f00020444843502e2e2e0a0000005b444247f2
:101400005d205b4c5749502d30385d204448435097
:1014100020737461727465640a0000005b44424783
:101420005d205b4c5749502d30395d206c776970d9
:101430005f6e6574776f726b5f696e6974282920bf
:0a144000636f6d706c6574650a003f
:020000040000fa
:020000040040ba
:02144a007047e9
:020000040000fa
:020000040040ba
:10144c002de9f04188b005469349944a0d2011f8d6
:10145c00014b536913f0020ffbd0d4610b783bb1f5
:10146c000a2bf4d1536913f0020ffbd0d061eee7d5
:10147c002db38b4b03f58052c2f82858894aea6287
:10148c006b62652385f83a306e2385f83b30864bca
:10149c006b61864bab618649804a0d2411f8010bb8
:1014ac00536913f0020ffbd0d0610b7843b10a2bb8
:1014bc00f4d1536913f0020ffbd0d461eee7fee7d1
:1014cc007c49764a0d2411f8010b536913f0020f75
:1014dc00fbd0d0610b783bb10a2bf4d1536913f0dc
:1014ec00020ffbd0d461eee7062385f83230724b45
:1014fc001868c5f833009b88a5f8373040f2dc53e8
:10150c002b8695f8393043f0320385f839306b4926
:10151c00624a0d2411f8010b536913f0020ffbd032
:10152c00d0610b783bb10a2bf4d1536913f0020f45
:10153c00fbd0d461eee7624a13604ff0ff31d16209
:10154c00106840f0200010600f20106240f23f1035
:10155c005061506a5b4850605b481061d3605b4ad5
:10156c0011604ff040405060594a11605360544c28
:10157c005648114604eb8302d2f80064c2f84004ca
:10158c00c2f880140133052bf4d195f8362095f868
:10159c0035301b0443ea026395f83320134395f866
:1015ac00342043ea0223464ac2f8883095f83810b2
:1015bc0095f8373043ea0123c2f88c304549a2f53f
:1015cc0020320d2411f8010b536913f0020ffbd0dc
:1015dc00d0610b783bb10a2bf4d1536913f0020f95
:1015ec00fbd0d461eee73c4b802283f827235a6072
:1015fc003a492a4a0d2411f8010b536913f0020fd2
:10160c00fbd0d0610b783bb10a2bf4d1536913f0aa
:10161c00020ffbd0d461eee73149204a0d2400e0e3
:10162c00d46111f8010b536913f0020ffbd0d06198
:10163c000b7833b10a2bf4d1536913f0020ffbd0a2
:10164c00eee71f4a136843f010031360536823f44a
:10165c00e01343f4801353602249a2f520320d2489
:10166c0000e0d46111f8010b536913f0020ffbd0a9
:10167c00d0610b7833b10a2bf4d1536913f0020ffc
:10168c00fbd0eee7022100200ef054fd0446164973
:10169c00024a0d252be000bf400b400000800240a9
:1016ac0020e04120a8124000799c4000116c4000c1
:1016bc006c0b4000a00b400064164100d00b4000a6
:1016cc0000000540032012000407180108f0452013
:1016dc0000f04520000c400000e100e0240c40002c
:1016ec00600c4000940c4000bc0c4000d56111f81b
:1016fc00010b536913f0020ffbd0d0610b7833b19f
:10170c000a2bf4d1536913f0020ffbd0eee703adb3
:10171c00884e0fce0fc533682b708749874a0d252d
:10172c0011f8010b536913f0020ffbd0d0610b7849
:10173c003bb10a2bf4d1536913f0020ffbd0d561e6
:10174c00eee71c217d4a24fa01f303f00f0320334a
:10175c006b4413f8140c536913f0020ffbd0d061d7
:10176c00043911f1040feed1744a536913f0020fce
:10177c00fbd0724b0d22da611a46536913f0020f3b
:10178c00fbd06e4b0a22da61032100200ef0d2fc52
:10179c0004466b49694a11f8010b536913f0020fa7
:1017ac00fbd0d0610b7853b10a2bf4d16348436959
:1017bc0013f0020ffbd0614b0d20d861ebe703adaa
:1017cc005c4e0fce0fc533682b705b495b4a0d2501
:1017dc0011f8010b536913f0020ffbd0d0610b7899
:1017ec003bb10a2bf4d1536913f0020ffbd0d56136
:1017fc00eee71c21514a24fa01f303f00f032033c6
:10180c006b4413f8140c536913f0020ffbd0d06126
:10181c00043911f1040feed1484a536913f0020f49
:10182c00fbd0464b0d22da611a46536913f0020fb6
:10183c00fbd0424b0a22da61022100200ef07afc26
:10184c004ff6ff73984215d03e493c4a11f8010bf4
:10185c00536913f0020ffbd0d0610b7813b30a2b32
:10186c00f4d13648436913f0020ffbd0334b0d20f3
:10187c00d861ebe7344b314a13f8011b506910f077
:10188c00020ffbd0d1611978002900f03a860a29a1
:10189c00f2d12a49486910f0020ffbd027490d20dc
:1018ac00c861e9e70ff0bcfd284b294a5a630ff0d9
:1018bc00b7fd0a200ef0ecfe4ff47a7500210846b5
:1018cc000ef038fc044610f4004f04d001200ef04a
:1018dc00dffe013df2d11f49184a0d2511f8010b0d
:1018ec00536913f0020ffbd0d0610b783bb10a2b7c
:1018fc00f4d1536913f0020ffbd0d561eee703adc1
:10190c000c4e0fce0fc533682b700b490b4a0d25af
:10191c0011f8010b536913f0020ffbd0d0610b7857
:10192c00d3b10a2bf4d1536913f0020ffbd0d5615c
:10193c00eee700bf1c054000d401400000800240cf
:10194c00d80c4000340d4000f40c40000000054061
:10195c0000800250580d40001c219d4a24fa01f3ce
:10196c0003f00f0320336b4413f8140c536913f07a
:10197c00020ffbd0d061043911f1040feed1944a5f
:10198c00536913f0020ffbd0914b0d22da611a460a
:10199c00536913f0020ffbd08d4b0a22da6132200f
:1019ac000ef076fe8b498a4a11f8010b536913f03d
:1019bc00020ffbd0d0610b7853b10a2bf4d18448c1
:1019cc00436913f0020ffbd0814b0d20d861ebe77c
:1019dc000ff026fd804b814a5a630ff021fd002643
:1019ec00dff814827a4c41e00df10c0cdff8fce1cd
:1019fc00bee80f00ace80f00def800308cf80030c9
:101a0c00774a0d2012f8011b636913f0020ffbd00b
:101a1c00e16113783bb10a2bf4d1636913f0020f27
:101a2c00fbd0e061eee71c2225fa02f303f00f0372
:101a3c0020336b4413f8141c636913f0020ffbd0b2
:101a4c00e161043a12f1040feed1636913f0020f55
:101a5c00fbd00d23e361636913f0020ffbd00a2363
:101a6c00e361013641f288339e4229d001210020e6
:101a7c000ef060fb054610f0200721d101200ef07e
:101a8c0007fea8fb06239b094ff47a7202fb136333
:101a9c0040f2e7329342e4d1524a0d2012f8011b76
:101aac00636913f0020ffbd0e1611378002b9bd01c
:101abc000a2bf3d1636913f0020ffbd0e061ede761
:101acc004949434a0d2400e0d46111f8010b5369d4
:101adc0013f0020ffbd0d0610b7833b10a2bf4d189
:101aec00536913f0020ffbd0eee703ac3f4e0fce61
:101afc000fc4336823703a49354a0d2411f8010b91
:101b0c00536913f0020ffbd0d0610b783bb10a2b59
:101b1c00f4d1536913f0020ffbd0d461eee71c2112
:101b2c002b4a25fa01f303f00f0320336b4413f80f
:101b3c00140c536913f0020ffbd0d061043911f16e
:101b4c00040feed1224a536913f0020ffbd0204b45
:101b5c000d22da611a46536913f0020ffbd01c4bad
:101b6c000a22da61efb1012100200ef0e3fa012123
:101b7c0000200ef0dffa04461d49154a0d2511f818
:101b8c00010b536913f0020ffbd0d0610b78002bc3
:101b9c0034d00a2bf3d1536913f0020ffbd0d5616b
:101bac00ede714490a4a11f8010b536913f0020fbf
:101bbc00fbd0d0610b78002bd5d00a2bf3d1044885
:101bcc00436913f0020ffbd0014b0d20d861eae7fb
:101bdc0000800240840d40000000054000120250bd
:101bec00d4014000b40d4000dc0d40001c05400049
:101bfc00300e4000000e4000d34d621003ad974ee6
:101c0c000fce0fc533682b709549964a0d2511f8e8
:101c1c00010b536913f0020ffbd0d0610b783bb171
:101c2c000a2bf4d1536913f0020ffbd0d561eee708
:101c3c001c218c4a24fa01f303f00f0320336b446c
:101c4c0013f8140c536913f0020ffbd0d061043954
:101c5c0011f1040feed1834a536913f0020ffbd03c
:101c6c00804b0d22da611a46536913f0020ffbd038
:101c7c007c4b0a22da6114f0040f15d07a491a460b
:101c8c0011f8010b536913f0020ffbd0d0610b78e4
:101c9c0013b30a2bf4d17348436913f0020ffbd032
:101cac00704b0d20d861ebe770496e4a11f8010baf
:101cbc00536913f0020ffbd0d0610b78002b00f0ae
:101ccc0020840a2bf2d1674b586910f0020ffbd01d
:101cdc00644b0d20d861e9e7052100200ef02afaab
:101cec00044663495f4a0d2511f8010b536913f043
:101cfc00020ffbd0d0610b783bb10a2bf4d15369a6
:101d0c0013f0020ffbd0d561eee703ad534e0fceaf
:101d1c000fc533682b705249524a0d2511f8010b2f
:101d2c00536913f0020ffbd0d0610b783bb10a2b37
:101d3c00f4d1536913f0020ffbd0d561eee71c21ef
:101d4c00484a24fa01f303f00f0320336b4413f8d1
:101d5c00140c536913f0020ffbd0d061043911f14c
:101d6c00040feed13f4a536913f0020ffbd03d4be9
:101d7c000d22da611a46536913f0020ffbd0394b6e
:101d8c000a22da6114f4807f11d114f0800f2ad169
:101d9c0014f0400f58d0374a536823f0030343f034
:101dac00020353603449a2f520320d243ae0314a43
:101dbc00536843f0030353603049a2f520320d24dd
:101dcc0011f8010b536913f0020ffbd0d0610b78a3
:101ddc00002b00f091830a2bf2d1536913f0020f00
:101dec00fbd0d461ece7234a536823f0030343f0a0
:101dfc00010353602249a2f520320d2411f8010b86
:101e0c00536913f0020ffbd0d0610b78002b00f05c
:101e1c0073830a2bf2d1536913f0020ffbd0d461f8
:101e2c00ece7d46111f8010b536913f0020ffbd0ee
:101e3c00d0610b78002b00f05f830a2bf2d1536931
:101e4c0013f0020ffbd0ece70a4a536823f00303ac
:101e5c0053600c49a2f520320d2416e01c054000fd
:101e6c00d401400000800240900e40005c0e400007
:101e7c00ac0e4000000005403c0f4000dc0e400062
:101e8c000c0f40006c0f4000d46111f8010b53692a
:101e9c0013f0020ffbd0d0610b78002b00f02c83d9
:101eac000a2bf2d1536913f0020ffbd0ece7d4618b
:101ebc0011f8010b536913f0020ffbd0d0610b78b2
:101ecc0033b10a2bf4d1536913f0020ffbd0eee7b8
:101edc008b498c4a0d2412e0d46111f8010b536923
:101eec0013f0020ffbd0d0610b78002bf0d00a2b33
:101efc00f3d1536913f0020ffbd0ede7d46111f865
:101f0c00010b536913f0020ffbd0d0610b7833b186
:101f1c000a2bf4d1536913f0020ffbd0eee77a4c85
:101f2c0020460df033fb20460df00cfb2346bff38f
:101f3c004f8f04f5c2527549c1f868322033934271
:101f4c00fad1bff34f8fbff36f8f71496d4a0d24d8
:101f5c0011f8010b536913f0020ffbd0d0610b7811
:101f6c003bb10a2bf4d1536913f0020ffbd0d461af
:101f7c00eee7684c03ad684e0fce0fc533682b707f
:101f8c006649604a0d2511f8010b536913f0020fd5
:101f9c00fbd0d0610b783bb10a2bf4d1536913f011
:101fac00020ffbd0d561eee71c21564a24fa01f34f
:101fbc0003f00f0320336b4413f8140c536913f024
:101fcc00020ffbd0d061043911f1040feed14d4a50
:101fdc00536913f0020ffbd04a4b0d22da611a46fb
:101fec00536913f0020ffbd0464b0a22da614c49bd
:101ffc001a4611f8010b536913f0020ffbd0d06194
:10200c000b7853b10a2bf4d13e48436913f0020ffd
:10201c00fbd03c4b0d20d861ebe7424c03ad3e4e60
:10202c000fce0fc533682b703c49364a0d2511f87d
:10203c00010b536913f0020ffbd0d0610b783bb14d
:10204c000a2bf4d1536913f0020ffbd0d561eee7e4
:10205c001c212c4a24fa01f303f00f0320336b44a8
:10206c0013f8140c536913f0020ffbd0d061043930
:10207c0011f1040feed1234a536913f0020ffbd078
:10208c00204b0d22da611a46536913f0020ffbd074
:10209c001c4b0a22da61244a136843f08c03136048
:1020ac002249a2f5203211f8010b536913f0020feb
:1020bc00fbd0d0610b7853b10a2bf4d11148436992
:1020cc0013f0020ffbd00f4b0d20d861ebe7164b32
:1020dc0040f6d2429a6216490a4a0d2411f8010bb5
:1020ec00536913f0020ffbd0d0610b7813b30a2b9a
:1020fc00f4d1536913f0020ffbd0d461eee700bfab
:10210c00f00f40000080024020e0412000ed00e094
:10211c002810400040f045201c054000d401400030
:10212c004810400020f04520000005406810400099
:10213c00881040008b498c4a0d2411f8010b53690f
:10214c0013f0020ffbd0d0610b783bb10a2bf4d10a
:10215c00536913f0020ffbd0d461eee7834b1c687c
:10216c0003ad834e0fce0fc533682b7081497e4a69
:10217c000d2500e0d56111f8010b536913f0020f26
:10218c00fbd0d0610b7833b10a2bf4d1536913f027
:10219c00020ffbd0eee71c21734a24fa01f303f083
:1021ac000f0320336b4413f8140c536913f0020f14
:1021bc00fbd0d061043911f1040feed16a4a536996
:1021cc0013f0020ffbd0684b0d22da611a465369eb
:1021dc0013f0020ffbd0644b0a22da6166491a46ef
:1021ec0011f8010b536913f0020ffbd0d0610b787f
:1021fc0053b10a2bf4d15c48436913f0020ffbd0a6
:10220c00594b0d20d861ebe7584b5c6803ad584e29
:10221c000fce0fc533682b705649534a0d2511f854
:10222c00010b536913f0020ffbd0d0610b783bb15b
:10223c000a2bf4d1536913f0020ffbd0d561eee7f2
:10224c001c21494a24fa01f303f00f0320336b4499
:10225c0013f8140c536913f0020ffbd0d06104393e
:10226c0011f1040feed1404a536913f0020ffbd069
:10227c003d4b0d22da611a46536913f0020ffbd065
:10228c00394b0a22da613d491a4611f8010b5369a0
:10229c0013f0020ffbd0d0610b7853b10a2bf4d1a1
:1022ac003148436913f0020ffbd02f4b0d20d8613e
:1022bc00ebe72e4b9c6903ad2d4e0fce0fc533684b
:1022cc002b702c49284a0d2511f8010b536913f07a
:1022dc00020ffbd0d0610b783bb10a2bf4d15369c0
:1022ec0013f0020ffbd0d561eee71c211e4a24fa35
:1022fc0001f303f00f0320336b4413f8140c5369f0
:10230c0013f0020ffbd0d061043911f1040feed1a0
:10231c00154a536913f0020ffbd0134b0d22da61ef
:10232c001a46536913f0020ffbd00f4b0a22da61e5
:10233c0013491a4611f8010b536913f0020ffbd025
:10234c00d0610b7853b10a2bf4d10748436913f0d1
:10235c00020ffbd0044b0d20d861ebe70949024a70
:10236c000d2412e0b4104000008002400000054033
:10237c001c054000d4014000d0104000f01040007b
:10238c000c1140003c114000d46111f8010b536951
:10239c0013f0020ffbd0d0610b7833b10a2bf4d1c0
:1023ac00536913f0020ffbd0eee75849584a0d243d
:1023bc0004e0536913f0020ffbd0d46111f8010b48
:1023cc00536913f0020ffbd0d0610b7813b10a2bb9
:1023dc00f4d1eee700214f480ef096fe044698b972
:1023ec004d494b4a0d2511f8010b536913f0020f9f
:1023fc00fbd0d0610b780bb30a2bf4d1536913f0db
:10240c00020ffbd0d561eee74449414b0d2011f88a
:10241c00014b5a6912f0020ffbd0dc610a783ab119
:10242c000a2af4d15a6912f0020ffbd0d861eee7f8
:10243c004ff0ff34204608b0bde8f0813849344aeb
:10244c000d2511f8010b536913f0020ffbd0d0616d
:10245c000b783bb10a2bf4d1536913f0020ffbd06c
:10246c00d561eee7042300934ff400732d4a2e49f7
:10247c002e480ef029fa98b12d49254a0d2511f850
:10248c00010b536913f0020ffbd0d0610b78f3b141
:10249c000a2bf4d1536913f0020ffbd0d561eee790
:1024ac00244a1b4b0d2012f8011b5c6914f0020f1f
:1024bc00fbd0d961117839b10a29f4d1596911f0dd
:1024cc00020ffbd0d861eee74ff0ff34b2e71a49a8
:1024dc000f4a0d2511f8010b536913f0020ffbd0b5
:1024ec00d0610b78002ba5d00a2bf3d1536913f0d4
:1024fc00020ffbd0d561ede710495b23044a0d2494
:10250c00f5e40f495b23024a0d24dae47011400014
:10251c00008002404cf84120cc1140009c1140003e
:10252c00f411400020e0412081de4000b412400054
:10253c00501240002012400078124000c80f40009a
:04254c009c0f4000a0
:020000040000fa
:020000040040ba
:1025500070b5c8b0954b1b780a2b00f2a381dfe859
:1025600013f00b001d00330037005200a101ca0018
:10257000a301e5023e0496058d4b93f8393013f024
:10258000100f03d164200df00ffe8be1894900206c
:102590000df09efe854b01221a70f3e7844b5b68b9
:1025a0001bb914200df000fe7ce1814ad379019320
:1025b00093790093537912797f4900200bf0b6fe8e
:1025c0007a4b02221a70ece7784b03221a7069e109
:1025d0007a4b1b7853b17a4b1a1fa3f10801774845
:1025e0000bf0c6fa30b9714b04221a7014200df0aa
:1025f000dbfd57e1714c2246724900200bf096fe3c
:10260000002323704ee17049704a0d2411f8010b2c
:10261000536913f0020ffbd0d0610b783bb10a2b4a
:10262000f4d1536913f0020ffbd0d461eee75f4b96
:1026300098680cf0a5fd002872d003691b681c681f
:102640005a4b9c616249614a0d2500e0d56111f841
:10265000010b536913f0020ffbd0d0610b7833b13b
:102660000a2bf4d1536913f0020ffbd0eee70df102
:10267000200c584d0fcdace80f002b688cf80030c3
:102680005549524a0d2504e0536913f0020ffbd05f
:10269000d56111f8010b536913f0020ffbd0d06123
:1026a0000b7813b10a2bf4d1eee71c210df1200cad
:1026b000464a24fa01f303f00f031cf803005369a0
:1026c00013f0020ffbd0d061043911f1040ff0d1e7
:1026d0003e4a536913f0020ffbd03c4b0d22da61e6
:1026e0001a46536913f0020ffbd0384b0a22da6105
:1026f0002e4b06221a703949344a0d2420e05369c2
:1027000013f0020ffbd0d46111f8010b536913f0e1
:10271000020ffbd0d0610b7833b10a2bf4d1eee776
:102720002f492a4a0d24efe7204b03221a70234b2e
:1027300000221a70b6e0536913f0020ffbd0d46187
:1027400011f8010b536913f0020ffbd0d0610b7825
:1027500013b10a2bf4d1eee70622012102200af080
:1027600025fc051e16db114b5d601e49174a0d2422
:1027700041e0536913f0020ffbd0d46111f8010b53
:10278000536913f0020ffbd0d0610b7833b10a2be1
:10279000f4d1eee714490d4a0d24efe7034b032271
:1027a0001a70064b00221a707ce000bf28204220dd
:1027b000c01f422090044000b0044000b4184220e2
:1027c00038204220cc0440009401400000800240a8
:1027d000b40140001c054000d4014000f801400055
:1027e000d80140003002400018024000536913f045
:1027f000020ffbd0d46111f8010b536913f0020fe3
:10280000fbd0d0610b7813b10a2bf4d1eee708ac02
:102810008b4e0fce0fc4336823708a498a4a0d2429
:1028200011f8010b536913f0020ffbd0d0610b7844
:102830003bb10a2bf4d1536913f0020ffbd0d461e2
:10284000eee71c2108ac804a25fa01f303f00f03e0
:10285000e05c536913f0020ffbd0d061043911f131
:10286000040ff1d1784a536913f0020ffbd0764b75
:102870000d22da611a46536913f0020ffbd0724b36
:102880000a22da6141f2883308930423009308abeb
:1028900041f2060240f6ff71284607f005fb6b4b3c
:1028a00007221a7048b070bd684c02236375208af5
:1028b0000ef0c4fee0826649634a0d2411f8010b54
:1028c000536913f0020ffbd0d0610b783bb10a2b98
:1028d000f4d1536913f0020ffbd0d461eee75b4be8
:1028e000b3f810c008ac564d0fcd0fc42b68237041
:1028f0005449554a0d2411f8010b536913f0020f86
:10290000fbd0d0610b783bb10a2bf4d1536913f0a3
:10291000020ffbd0d461eee71c2108ac4a4a2cfa26
:1029200001f303f00f03e05c536913f0020ffbd0d7
:10293000d061043911f1040ff1d1434a536913f006
:10294000020ffbd0404b0d22da611a46536913f097
:10295000020ffbd03c4b0a22da613e49102251f8ab
:10296000100c0bf07dfe84463b49374a11f8010bf1
:10297000536913f0020ffbd0d0610b7853b10a2bcf
:10298000f4d13148436913f0020ffbd02e4b0d20d8
:10299000d861ebe708ac2a4d0fcd0fc42b6823702c
:1029a0002849294a0d2404e0536913f0020ffbd093
:1029b000d46111f8010b536913f0020ffbd0d06101
:1029c0000b7813b10a2bf4d1eee71c2108ac1e4a98
:1029d0002cfa01f303f00f03e05c536913f0020fcc
:1029e000fbd0d061043911f1040ff1d1164a5369bb
:1029f00013f0020ffbd0144b0d22da611a46536913
:102a000013f0020ffbd0104b0a22da61bcf1000f69
:102a100026db12491a4611f8010b536913f0020f15
:102a2000fbd0d0610b78002b7cd00a2bf3d1064869
:102a3000436913f0020ffbd0034b0d20d861eae786
:102a40001c054000d40140000080024028204220a4
:102a5000540240003c20422078024000b80240006e
:102a60008649874a11f8010b536913f0020ffbd016
:102a7000d0610b7853b10a2bf4d18148436913f02c
:102a8000020ffbd07e4b0d20d861ebe77d4b1c681d
:102a90000df1200c7c4d0fcdace80f002b688cf8ad
:102aa00000307a49764a0d2511f8010b536913f06d
:102ab000020ffbd0d0610b783bb10a2bf4d15369e4
:102ac00013f0020ffbd0d561eee71c210df1200cb5
:102ad0006b4a24fa01f303f00f031cf80300536957
:102ae00013f0020ffbd0d061043911f1040ff0d1c3
:102af000634a536913f0020ffbd0614b0d22da6178
:102b00001a46536913f0020ffbd05d4b0a22da61bb
:102b10005f4c60680af0baff032323705d4b00220c
:102b20001a70bfe65a4b08221a70bbe6584a9368df
:102b3000d268594908a80ef0fbf908a80ef002fb6c
:102b4000844656494e4a0d2411f8010b536913f07f
:102b5000020ffbd0d0610b783bb10a2bf4d1536943
:102b600013f0020ffbd0d461eee74d49444a0d2427
:102b700011f8010b536913f0020ffbd0d0610b78f1
:102b80003bb10a2bf4d1536913f0020ffbd0d4618f
:102b9000eee703ac3c4d0fcd0fc42b6823703b49cf
:102ba000374a0d2400e0d46111f8010b536913f08a
:102bb000020ffbd0d0610b7833b10a2bf4d15369eb
:102bc00013f0020ffbd0eee71c2103ac2c4a2cfac9
:102bd00001f303f00f03e05c536913f0020ffbd025
:102be000d061043911f1040ff1d1254a536913f072
:102bf000020ffbd0224b0d22da611a46536913f003
:102c0000020ffbd01e4b0a22da610023624608a99c
:102c10001f4840680af044f984462249184a11f8ce
:102c2000010b536913f0020ffbd0d0610b7853b145
:102c30000a2bf4d11248436913f0020ffbd0104b5a
:102c40000d20d861ebe703ac0f4d0fcd0fc42b68ff
:102c500023700e490a4a0d2411f8010b536913f031
:102c6000020ffbd0d0610b78f3b10a2bf4d153697a
:102c700013f0020ffbd0d461eee700bf9c024000ce
:102c8000008002405c2242201c054000d40140002c
:102c900028204220b4184220e8044000d00240001e
:102ca000ec024000080340001c2103ac924a2cfabd
:102cb00001f303f00f03e05c536913f0020ffbd044
:102cc000d061043911f1040ff1d18b4a536913f02b
:102cd000020ffbd0884b0d22da611a46536913f0bc
:102ce000020ffbd0844b0a22da61bcf1000f16db25
:102cf00082491a4611f8010b536913f0020ffbd0f9
:102d0000d0610b78002b66d00a2bf3d17a48436947
:102d100013f0020ffbd0784b0d20d861eae7784919
:102d2000754a11f8010b536913f0020ffbd0d06103
:102d30000b7853b10a2bf4d16f48436913f0020f9b
:102d4000fbd06d4b0d20d861ebe76e4b1c680df18d
:102d50000c0c6d4d0fcdace80f002b688cf80030db
:102d60006a49654a0d2500e0d56111f8010b5369e8
:102d700013f0020ffbd0d0610b7833b10a2bf4d1e2
:102d8000536913f0020ffbd0eee71c210df10c0c80
:102d9000594a24fa01f303f00f031cf803005369a6
:102da00013f0020ffbd0d061043911f1040ff0d100
:102db000514a536913f0020ffbd04f4b0d22da61d9
:102dc0001a46536913f0020ffbd00a234a4ad36113
:102dd0004f4a137066e54e4b09221a7062e54d4961
:102de000454a0d2411f8010b536913f0020ffbd073
:102df000d0610b783bb10a2bf4d1536913f0020f69
:102e0000fbd0d461eee74f2208a9414840680ef09c
:102e10009afa05464049384a0d2411f8010b5369c6
:102e200013f0020ffbd0d0610b783bb10a2bf4d129
:102e3000536913f0020ffbd0d461eee703ac324ebe
:102e40000fce0fc43368237030492b4a0d2400e0a5
:102e5000d46111f8010b536913f0020ffbd0d0615c
:102e60000b7833b10a2bf4d1536913f0020ffbd066
:102e7000eee71c2103ac204a25fa01f303f00f030f
:102e8000e05c536913f0020ffbd0d061043911f1fb
:102e9000040ff1d1184a536913f0020ffbd0164bff
:102ea0000d22da611a46536913f0020ffbd0124b60
:102eb0000a22da61002d00f3a380a5b117491a4652
:102ec0000d2434e0536913f0020ffbd0d46111f8e4
:102ed000010b536913f0020ffbd0d0610b7833b1b3
:102ee0000a2bf4d1eee70e49034a0d24efe7084b15
:102ef0000a221a70d6e400bf00800240440340005a
:102f0000280340005c2242201c054000d401400000
:102f1000282042206c03400088034000d403400076
:102f2000a8034000536913f0020ffbd0d46111f8dd
:102f3000010b536913f0020ffbd0d0610b7813b172
:102f40000a2bf4d1eee76c4b1c680df10c0c6b4da9
:102f50000fcdace80f002b688cf800306849694a47
:102f60000d2500e0d56111f8010b536913f0020f34
:102f7000fbd0d0610b7833b10a2bf4d1536913f035
:102f8000020ffbd0eee71c210df10c0c5d4a24fa78
:102f900001f303f00f031cf80300536913f0020f51
:102fa000fbd0d061043911f1040ff0d1554a5369b7
:102fb00013f0020ffbd0534b0d22da611a4653690e
:102fc00013f0020ffbd04f4b0a22da614e491a462a
:102fd00011f8010b536913f0020ffbd0d0610b788d
:102fe00053b10a2bf4d14748436913f0020ffbd0c9
:102ff000444b0d20d861ebe7444b0a221a7051e490
:1030000008ab00225a5542493e4a0d2411f8010be3
:10301000536913f0020ffbd0d0610b783bb10a2b40
:10302000f4d1536913f0020ffbd0d461eee79df8a1
:103030002030a3b108a9334a0d2408e011f8010b90
:10304000536913f0020ffbd0d0610b783bb10a2b10
:10305000f4d1536913f0020ffbd0d461eee72d4990
:103060000a23284a0d240ae011f8010b536913f0d2
:10307000020ffbd0d0610b78002b3ff413ac0a2b6e
:10308000f2d1536913f0020ffbd0d461ece722496f
:103090001c4a0d2411f8010b536913f0020ffbd0e9
:1030a000d0610b783bb10a2bf4d1536913f0020fb6
:1030b000fbd0d461eee7154b58680af0e7fc1749de
:1030c000104a0d2411f8010b536913f0020ffbd0c5
:1030d000d0610b783bb10a2bf4d1536913f0020f86
:1030e000fbd0d461eee7094b03221a700c4b00228f
:1030f0001a70fff7d7bb00bf5c2242201c054000be
:10310000d401400000800240f40340002820422007
:103110001c0440003c04400058044000740440007b
:04312000b41842207d
:020000040000fa
:020000040040ba
:10312400f0b583b004460d4643681a7802f00f02e6
:10313400910003eb8203944a136049420af0befdf6
:1031440010b92389132b04d820460af029f903b0b7
:10315400f0bd29468d4b18680cf050fc0028f3d1c3
:103164008a4b1b6803f0f003e02bedd02389009316
:103174000623864a8649204609f0eafc0028e3d162
:10318400814b1b6898890ef05afa000bc0eb803013
:10319400810009b220460af091fd0028d4d17a4d6d
:1031a4002e6830880ef04bfa30802e6870880ef04e
:1031b40046fa70802e6870680ef02cfa7060754bb9
:1031c40018602e68b0680ef025fab060724b186073
:1031d4002e68f0890ef033faf0812b6898890ef08e
:1031e4002efa5ffa80fe00f03f026c4b1a7010f06a
:1031f400030018bf01202389184481b2684b198049
:10320400684b1e68002e71d02868614b1f683546d4
:103214004ff0000c09e0fee7fee7fee7fee7fee7fd
:10322400eb68ac46002b61d01d462b7e002bf2d000
:103234000a2bf1d0012bf0d0aa8b03889a42efd14c
:103244006a8b43889a42ebd16b68bb42e8d12b6806
:103254004e4a12689342e3d1eb68ab42ded0bcf134
:10326400000f06d0ccf80c30ee60ae42d7d04d4bf8
:103274001d604d4b00221a60218919815c60186120
:103284004a4b1a604a4b1a701ef0080f03d0637b36
:1032940043f001036373ab6f6bb128460af0daffa6
:1032a40010f10a0f00f06081ab6f23b13c4b1b8817
:1032b400002b40f059813f4b1d60384b1b7813f0b5
:1032c400040f00f015812a7e022a00f00281314b9e
:1032d4001b68a96a5b1a00f13281a98d5b1a002b65
:1032e40000f32d81002a40f0f980fee7324b186884
:1032f400002865d0244b1d68254bd3f800c01be083
:10330400fee701930092224b204a31442248006890
:1033140009f0c3f934e01ef0010f2fd0274b1b68ce
:1033240043622be0837f43f00203837703f0bef90b
:1033340026e0c068002843d0037e0a2be0d12b8806
:10334400828b9a42f5d16a88468b9642f1d14668bf
:103354006645eed10d4e36680768b742e9d11ef0d6
:10336400040f0dd11ef0020fd5d00a4d2e68856ac8
:10337400751b03d4878ded1b002dc2dd0029d1d12f
:1033840020460af00df8e2e6f0214220f82142201e
:10339400fc214220ec214220e821422070224220dc
:1033a40022214220d0214220cc204220e42142206c
:1033b4006f224220e0214220cc214220dc21422005
:1033c4009c4b1f68002f00f063839b4bd3f800c015
:1033d400bcf80200994b1e683d46002205e0eb68ec
:1033e4002a46002b00f054831d466b8b8342f6d192
:1033f4002b680bb1b342f2d122b1eb68d360ef601a
:103404008c4b1d601ef0040f05d11ef0100f06d169
:103414001ef0020f13d1204609f0c2ff97e6884b35
:103424001868bcf800300193bcf802300093854b57
:10343400824a01448448006809f02ff9ebe7687e6a
:1034440006f0a6fc06460028e5d07c4b1b6803600a
:103454006b8b43837b4b1b684360774b1a681388e1
:10346400838303230376764b1b68591c81620163b3
:10347400d189a0f86010d289a0f86220a0f84e107b
:10348400013b43652b6903616b6943612b7a23f02c
:10349400730303726d4b1a68c26018600cf082fbf0
:1034a4006b4b01221a70304609f02afa311df08e56
:1034b4000df04efcf0861221304607f07bf920b166
:1034c4000021304609f0d0f9a5e7304603f0eef8c4
:1034d400a1e72a6d5c4b1b689a4230d15d4a137890
:1034e40043f008031370ab7f23f00103ab7726e0ae
:1034f40013f0020f04d02b7e023bdbb2012b1ad84f
:10350400ab7f13f0100f02d1534b1b686b62002387
:1035140085f89630284609f0f3f92b7e023b072bf9
:103524000dd8dfe813f03100c700260136018f0102
:103534002601c9011f02ab7f43f00203ab77454b61
:103544001b7813f0080f00f02282d5f88c301bb1e1
:103554006ff00a012869984729463c4809f0d0fbd6
:10356400294602200df02af800233c4a13603c4a05
:1035740013603c4b586800283ff4e9ad09f010ff94
:10358400384b00225a60e2e5374b1b7803f01203f4
:10359400122b16d0344b1b7813f0100fcfd0264bc0
:1035a4001b68324a1088264a11681a8801925b887f
:1035b4000093244b214a01442348006809f06df824
:1035c400bde72b6f1b6958680ef024f81e4b1a6870
:1035d400431c9342ded1b5f866300133a5f866305a
:1035e400174b1b68591ca9622963aa64124a126802
:1035f400d189a5f86010d289a5f86220013b6b65da
:1036040004232b76e918e88e0df0a2fb0346e88626
:1036140000eb80025200a5f84e20b5f84c20012a98
:1036240005d0a5f84c30b5f868300bbbfee7430075
:103634009bb2f6e7d4214220f0214220f821422017
:10364400ec214220fc214220e8214220d0214220ca
:103654006e2242206f224220dc214220e0214220bf
:10366400e4214220cc204220702242202221422008
:10367400013ba5f86830286f03682b670df02ffc19
:103684002b6f9bb10023ab8685f84630d5f8843088
:103694003bb1002229462869984710f10a0f3ff4ec
:1036a40063afab7f43f00203ab7748e74ff6ff739a
:1036b400ab86ebe79c4b1b7813f0100f4ad09b4b67
:1036c4001868ab6cdb43c34203d42b6dc31a002bc5
:1036d4000fdd974b1b68974a1488974a11681a881c
:1036e40001925b880093954b954a214408f0d5ffdd
:1036f40025e704232b766b691bb30022294628692e
:103704009847f8b9b5f84c40284600f0e7f9b5f801
:10371400643013b1013ba5f86430012ceb8e04bf77
:103724005b009bb2a5f84c30864b1b7813f0200f3e
:103734003ff405afab7f43f00203ab7707232b764f
:10374400fde6fee710f10a0f3ff40eaf28460df038
:1037540036ff09e713f0020f3ff4f1aeab6a013b09
:10376400754a126893427ff4eaae28460bf06cfb6c
:10377400e5e6284600f0b2f9724b1b7813f0200fef
:103784003ff4ddaeab7f43f00203ab7707232b7628
:10379400d5e6284600f0a2f96a4b1b7813f0200ff7
:1037a40041d0614b1b7813f0100f04d02a6d5f4b8e
:1037b4001b689a4206d0ab7f43f00203ab77082321
:1037c4002b76bce6ab7f43f00203ab7728460bf0c5
:1037d400d3ff5d4b1b689d420ad05c4a13600022f4
:1037e4000120d3b1d9688d4206d002460b46f8e7d2
:1037f400da68554b1a6004e00ab1544a1360ca6887
:10380400da60534b01221a700a232b76514b1a6843
:10381400ea601d600cf0c6f991e6002af1d04b4b2a
:1038240000221a60ede7404b1b7813f0100f3ff4b1
:1038340086ae2a6d3d4b1b689a427ff480ae062308
:103844002b767ce6284600f049f93e4b1b7813f0b2
:10385400200f3ff474aeab7f43f00203ab772846ee
:103864000bf08aff384b1b689d420ad0374a13601d
:1038740000220120d3b1d9688d4206d002460b46fe
:10388400f8e7da68304b1a6004e00ab12f4a136093
:10389400ca68da602e4b01221a700a232b762d4b4c
:1038a4001a68ea601d600cf07df948e6002af1d040
:1038b400264b00221a60ede7284600f00ff91a4b58
:1038c4001b7813f0100f3ff43aae2a6d174b1b68a8
:1038d4009a427ff434ae28460bf04eff1a4b1b6815
:1038e4009d420bd0194a136000220120002b33d0d3
:1038f400d9688d4206d002460b46f7e7da68124bc8
:103904001a6004e00ab1114a1360ca68da60104b05
:1039140001221a700a232b760e4b1a68ea601d6086
:103924000cf040f90be600bf70224220e82142204f
:10393400f021422022214220ec214220fc2142207d
:10394400f82142206f224220d0214220c821422067
:103954006e224220cc214220002ad8d0534b002290
:103964001a60d4e7284600f0b9f8514b1b7813f0dd
:10397400100f3ff4e4ad2a6d4e4b1b689a427ff45e
:10398400dead4d4a137843f010031370d7e513f0fe
:10399400100f13d0ab7f13f0100f06d1d5f88c3075
:1039a4001bb16ff00b01286998472946434809f079
:1039b400a7f9294602200cf001fed5e5b5f86420ec
:1039c40042b1eb6f33b129462869984710f10a0fc9
:1039d4003ff4caad3a4b1a68aab1ab6f03b1fee724
:1039e400ab7f13f0100f20d1d5f8804024b300230f
:1039f40029462869a04710f10a0f3ff4b5ad10b16c
:103a04002f4b1b68ab672c4b1b7813f0200f05d092
:103a1400ab6fbbb15a7b42f020025a73294b002290
:103a24001a60284602f042fe9ee5104609f0b8fcf2
:103a340028460df0c4fd97e50023294618460df0ed
:103a440051f8d8e7ab8d41f2d062934201d00133f3
:103a5400ab85d5f88040002ce0d000231a462946d7
:103a64002869a04710f10a0fd8d17de5164b1b68d1
:103a7400164a1088164a11681a8801925b880093c6
:103a8400144b154a01440b48006808f006fe07e091
:103a94000d4b1b6898890df0d2fd10f0040fe5d092
:103aa400204609f07dfcfff752bb00bfc82142202d
:103ab40070224220e82142206f224220d02142205d
:103ac400e4214220e0214220f02142202221422010
:0c3ad400ec214220fc214220f82142207d
:020000040000fa
:020000040040ba
:103ae000037e032b00d8fee72de9f04704469b4bed
:103af0001b7813f0100f00f08981b0f86000a56dfd
:103b0000626d974b1b68d11a00291edb9a4217d0b1
:103b1000944a1668b54234d0924b1a68a36cd11af5
:103b2000002945dd216d511a002972dd0023a4f81a
:103b30006430e36e002b00f061818a4e00271ae1a9
:103b4000884a1268aa1a002ae2da874a1268d689d5
:103b5000b1b2a4f86060d289b4f86260964201d232
:103b6000a4f8622063657f4b1b68a365c1b994f814
:103b70009530002bd0d184f89430012384f895300f
:103b8000cae7794a1268d789b9b28842c4d2a4f880
:103b90006070d289b4f862709742e1d36365a6651c
:103ba00094f89530002bb7d0002384f89530b3e714
:103bb0000021a4f864106d49098831b9b4f8601087
:103bc000a66d31442844814203d0002384f8473055
:103bd000afe7a18e11f4004ff7d19a42f5d194f8d6
:103be0004730ff2b0bd00133dbb284f84730032b77
:103bf00005d8032b9dd120460bf0f9f999e7b4f8cd
:103c00004c20e38e13449bb29a4292d2a4f84c30db
:103c10008fe7a17f11f0040f06d021f00401a177f6
:103c2000b4f84e10a4f84c10002084f84600b4f903
:103c30004050b4f8421001ebe501a4f84410d31a47
:103c40009bb2a4f86430b4f866100b44a4f8663054
:103c500084f84700a264b4f84c20b4f84e30934284
:103c60000ad9e38e13449bb29a4201d2a4f84c3095
:103c7000236febb13b4e28e0e38e03fb03f393fb92
:103c8000f2f313449bb29a42f2d2a4f84c30efe71d
:103c9000fee72b6998890df0d4fc10f0010f37d0a6
:103ca000b4f86430013ba4f8643031e0e36e43b112
:103cb000236fb3fa83f35b095b42a3860023e377a8
:103cc00037e7fee7236f002bf2d01b6958680df031
:103cd000a3fc0546236f1f891b6998890df0b1fc71
:103ce00010f0030318bf01233b443268ad1a2b4484
:103cf000002bdddc256f2b682367b4f868706868db
:103d00000df058fa8742c3d3b4f86430002bc0d109
:103d100068680df04ffab4f868301b1aa4f86830e0
:103d200028460df0def8b4f86830002bcad0236fb7
:103d3000002bbbd0236fc8e7a4f86a703ce0fee715
:103d40002b6998890df07dfc10f0010f3fd0b4f87d
:103d50006430013ba4f8643039e0fee77022422071
:103d6000ec214220e8214220f02142202221422061
:103d7000e36e002b42d035681b6958680df04cfc8f
:103d80008146e36eb3f808801b6998890df059fcf1
:103d9000a5eb090510f0030318bf01234344ed1af6
:103da000002d2bdb3368226d9b1a002b26dce56e81
:103db0002b68e366002bbfd0b4f8688068680df00c
:103dc000f9f98045bbd3b4f86430002bb8d16868ea
:103dd0000df0f0f9b4f868301b1aa4f868302846e2
:103de0000df07ff8b4f86830002bc1d0236f002ba2
:103df000bed1e36e002bb0d0e36ebce7a36b2bb15a
:103e0000e26b88490968521a002a22db864b1b881c
:103e1000002b00f0ad82227e062a00f2a982a06a61
:103e2000824a1268811a012905d4c2f10105eb1af0
:103e30000344002b31dd131a002b65dba38dc3f186
:103e4000010313441b1a002b63dd20460af0bcfd5e
:103e50009ee2774a15889bb2b4f94060c6f3cf0161
:103e6000ea1a521a10b216fa82f212b2a4f84020dc
:103e700000280edbb4f94230a3eba30303449bb24a
:103e8000a4f8423003ebe203a4f844300023a36318
:103e9000bce75b1b194408b2ece7664b586828b1d5
:103ea0000b4647f6fe72914201ddfee7fee74589cb
:103eb0008d4213da02898a4200dafee7521a92b280
:103ec00000215b1b02814181006845899d42f8db2e
:103ed0005b4219b209f0f4fe30b1fee7494209b283
:103ee00009f0eefe00b1fee7a26a52494f480368ae
:103ef0000d892b449b1a0b8102600b695a60a06ae2
:103f0000131a002b9adaa0e7a37f43f00203a377ea
:103f10009be782420dd020460af056fd656f002dca
:103f200000f05881414b1a68571e02f1010c00261f
:103f300072e1404b1d891b6998890df082fb10f0de
:103f4000030318bf01232b449bb2374a1380a28d71
:103f50009a421dd3636f83b1364b1b6998890df06c
:103f600070fb10f0010f55d0606f30b103686367cc
:103f70000cf0b7ff606f0028f8d12b4b1a882b4b41
:103f80001b681344a362a38d9a4240f29980fee716
:103f9000284b1b6998890df054fb10f0010f28d1b4
:103fa000244ba28d1a811b6998890df04afb10f0f1
:103fb000020f03d01f4a1389013b13811d4e318923
:103fc00070680af07ffb3589336998890df039fbf9
:103fd00010f0030318bf01232b449bb2124a138035
:103fe000124a12681344a28da16a0a449342b1d0c6
:103ff000fee7104e33699d8928460df022fb00f044
:104000003e000df01bfb326925f47c5540ea0503a8
:104010009381c5e7656f002d50d0dff80c80034f0a
:10402000044e12e0e821422022214220ec214220cd
:10403000dc214220cc204220d5f8009028460cf00c
:1040400050ffb9f1000f38d04d462a69b8f800305a
:1040500039680b4451685b1a29895b1a002bc0f23e
:10406000998190890df0edfa10f0010fe4d03369d9
:1040700098890df0e6fa10f0020fddd1dff8bca24e
:10408000daf81030b3f80c9001200df0d7fadaf816
:10409000103049ea0009a3f80c90baf80890daf851
:1040a000103098890df0cdfa10f0030318bf0123ea
:1040b0009944a14ba3f80090bee74d4665675ce7c5
:1040c0009b1aa38520460bf0affa9c4b5b681a89bc
:1040d00022b19b4a1360994b00225a60974b1b698f
:1040e00098890df0aefa10f0010f04d0954a1378bc
:1040f00043f020031370656f002d5dd0904f914efb
:1041000019e0fee7396000236b602b6998890df098
:1041100098fa10f0010f06d0337843f02003337083
:10412000237e042b45d02b68636728460cf0d9fe0c
:10413000656f002d40d02a695368a16a8b423bd13c
:1041400081490b60b5f8088090890df07afa10f07b
:10415000030318bf01234344a26a1a44a262b4f8bd
:104160002c80b5f808902b6998890df06afa10f048
:10417000030318bf01234b449845c2dbb5f8088000
:104180002b6998890df05dfa10f0030318bf012325
:104190004344a28dd31aa38520460bf045fa6968e3
:1041a0000b89002bb1d038680028abd00bf0affde5
:1041b000a9e707232376b6e7a37f13f0010f05d005
:1041c00023f0010343f00203a377e1e043f001038e
:1041d000a377dde059480cf009fa6067d8e0574b47
:1041e0001a892b899a4240f2d38054480cf0fef988
:1041f0000346002800f0cc802eb1306029461846d6
:1042000008f064f9c4e06067f8e7d31a002b66dbb6
:104210002868b8b12e46054629694b689342ded01e
:10422000002ef2d030694068381a002803dbaceb6e
:10423000030000285ddd28680028ebd1d21a002a8f
:1042400040f3a68088890df0fcf910f0010f40f0d2
:104250009f803a480cf0caf92860002800f0988046
:104260002b695968384b1b682a890a44d21a002adc
:104270005bdc314b1a88344b1b681a44a38da16a4e
:104280000b449a4240f284802b681b6998890df098
:10429000d8f910f0010f59d12a682b4e3168a38d3f
:1042a0005b1aa16a0b4413812b68198958680af0bc
:1042b00009fa2b681d891b6998890df0c2f910f065
:1042c000030318bf01232b449bb21b4a138032689f
:1042d0001344a28da16a0a44934259d0fee71748bd
:1042e0000cf084f9002853d06067294608f0eef8f6
:1042f0004ee012480cf07af90446002848d03369a1
:104300005968114b1b6832890a44d21a002a05dc0d
:1043100034602946204608f0d9f839e05b1a99b292
:10432000318170680af0cef9f2e75b1a99b22981ff
:1043300068680af0c7f99ce722214220cc2042207d
:10434000e42142206f224220ec2142202b681b698d
:104350009e8930460df075f900f03e000df06ef9c3
:104360002b681a6926f47c5640ea0603938193e78a
:10437000224b1b68a26a991a002905db01339b1a9c
:10438000a28d9b1a002b03dda37f43f00203a377ca
:10439000bde8f087194b19682b695a68184b1b88c0
:1043a0000b449b1a002b7ff789ae164b521a1a81c9
:1043b0001b6998890df045f910f0020f03d0114ade
:1043c0001389013b13810f4f398978680af07af914
:1043d0003e893b6998890df034f910f0030318bf4a
:1043e000012333449bb2064a1380044a12681344e3
:1043f0002a69526893423ff461aefee7ec21422005
:0844000022214220cc204220c1
:020000040000fa
:020000040040ba
:104408002de9f04f89b0856aab6803b1fee78146b4
:104418009346506853892b2b18d90378022b15d152
:1044280099f8324064b109f1320300f11b021c44cf
:1044380013f8016f12f8011f8e4207d1a342f7d17a
:1044480040680df0e5f82b68984207d00023ab6070
:10445800584608f0a3ff09b0bde8f08fbb4b002217
:104468001a605a601a81bbf80a302b2beed9dbf898
:104478000430ab60bbf808409046f0235f467a8969
:104488009a4214d89b1a9bb2a41aa4b23f68002f70
:10449800f5d1dbe7ec246c23f0e74ff000086c243f
:1044a8002c23ebe74ff00108ec246c23e6e77e6849
:1044b8001a46f15ca34280f05481ff2900f0518133
:1044c8000195cdf80880cdf80c90cdf810b0b6e085
:1044d8003a68002a00f0f28152681278b7e0042a9c
:1044e8003ed190464ff006099d1c12fa85f5adb2f3
:1044f8000022079202331ffa83fb944b09eb030a4d
:10450800934b03eb890305931af8013b002b39d130
:104518004246042a28bf04225b46d2b207a938467d
:1045280009f034ffb8f1040f6ed918f0030f6ad1ff
:1045380001230af8013c07980cf070fd059b43f82d
:10454800040b0593a8f104085ffa88f80bf1040b33
:104558001ffa8bfb09f10109b9f10a0fd4d1fee763
:10456800fee7032a04d94ff007094ff00408bbe718
:10457800fee712f0030f14d19d1c12fa85f5adb2b7
:10458800002a39d17a89aa4250d8ab1a9bb2a21a0a
:1045980094b2a34280f0ff803f68002f45d07e6828
:1045a80045e0fee7042a03d190464ff003099be754
:1045b800fee7012a03d190464ff0000994e7fee791
:1045c800012a03d190464ff001098de7fee7042a3e
:1045d80003d190464ff0020986e7fee7042a03d18b
:1045e80090464ff004097fe7fee7042a03d190467e
:1045f8004ff0050978e7fee7082a28bf0822904609
:104608004ff0080974e7fee7b8f1040f09d09df8e8
:104618001c004e4a012102f809104d4a42f82900af
:10462800b0e707980cf0f4fff3e7fee72b461a46cd
:10463800f15ca34280f0b780ff2900f08b805d1cfd
:10464800adb27889a8427ff643af324452783b290d
:1046580000f22f8101a050f821f000bf8d454000e5
:10466800e7444000bb4840006b454000bb48400061
:10467800bb4840007b454000bb484000bb48400069
:10468800bb484000bb484000bb484000bb48400016
:10469800bb484000bb484000bb484000bb48400006
:1046a800bb484000bb484000bb484000bb484000f6
:1046b800bb484000bb484000bb484000bb484000e6
:1046c800bb484000bb484000bb484000bb484000d6
:1046d800bb484000bb484000bb484000bb484000c6
:1046e800bb484000bb484000bb484000bb484000b6
:1046f800bb484000bb484000bb484000bb484000a6
:10470800bb484000bb484000bb484000bb48400095
:10471800bb484000bb484000bb484000bb48400085
:10472800bb484000bb484000ad454000bb45400089
:10473800c9454000d7454000bb484000bb48400041
:10474800bb484000e5454000f345400018214220a1
:1047580000204220019dddf80880ddf80c90ddf88e
:1047680010b06b4b1b786bb16a4b1b68684a002111
:104778001170012b3ff48eae022b3ff48eae032b4b
:104788003ff490aeb8f1000f00f09a804ff00008a7
:104798006c242c2372e6019dddf80880ddf80c906e
:1047a800ddf810b0dde7019dddf80880ddf80c903c
:1047b800ddf810b0d5e72e7b012e08d0f31edbb252
:1047c800022b3ff643ae484606f056f93ee6d9f8c6
:1047d80028400023a362e3624d4bdb7813b14d4bb5
:1047e800db6823634a4b1b79002b2ad0494b1b6992
:1047f8006363474b5b793bb3464b5b69a363a36831
:104808001b696362424b9b7903bba373404bdb7903
:104818001bbb3f4b1b7a33b33e4b186a0cf0fefbb5
:10482800079007a900200bf0b1fe394b5b7ad3b192
:10483800384b586a0cf0f2fb079007a901200bf0df
:10484800a5fe236b5b08d3e7236bd7e7314b986949
:104858000cf0e4fba0623346d7e72e4bd8690cf086
:10486800ddfbe062d5e748460cf07ff8eee52a7bf1
:10487800d31edbb2022b02d9012a7ff4e7add9f8a7
:10488800286048460bf03ffe234c2146484609f075
:10489800a7ff214648460cf04ffe214648460cf03b
:1048a80051fe0c2130460cf08dfd484606f0b4fe52
:1048b800cce5023312fa83f39db263e60022c6e622
:1048c800134b5b78002b3ff4c1ad124b1b79052bc2
:1048d8003ff471af062bcad0022b7ff4b7ad2b7b08
:1048e800062b7ff4b3ad00236b83094b9b78002b19
:1048f8003ff4acadd9f82840064b98680cf08efb15
:104908002062a3681b696362484605f0e5fd9de5e2
:0c49180018214220002042209c16410083
:020000040000fa
:020000040040ba
:104924002de9f04fb9b0964b1b6823b1944b1c682a
:10493400dff888b2ffe1934911f8012f924808f09b
:10494400bff838b18e4b1c68002cf1d1012039b06e
:10495400bde8f08f8d4b1b78002bf3d10cf0d6fd06
:10496400012803d8894b01221a70ebe70cf0c8fd2b
:10497400874909f0d9fcf5e74ff000036375854ecc
:1049840004f1120803273a46316840460bf0b4ff9d
:10499400002800f0c6810c365e45f4d10023238242
:1049a400c5e1316804f112000cf00dfc18b973680c
:1049b40031462046984700232382b8e11b281dd89e
:1049c400072840f27081a0f10803132b00f26b81d9
:1049d400dfe813f034016901370069016901370028
:1049e4006901690169016901690169016901690173
:1049f4006901690169016901690164017f2840f065
:104a04005281e369a269934240f29181511c5b1a7d
:104a140005d0d018517802f8011b9042fad1e2690e
:104a2400511ee161002102f8011c04f17107a26921
:104a3400594938460cf07afa33683946284698477b
:104a440075e104f12009e3694b4526d033685349e5
:104a540028469847e36900211970c4f81890c4f8ef
:104a64001c90202206a80cf033fc6768039751229f
:104a740049460ea80cf092fd082206a90ea808f0db
:104a8400d5fb029070b923681b684549384698479e
:104a9400336844492846984749e1336842492846df
:104aa400984744e1029b002b05dc23681b683f49bf
:104ab40003989847ece7d4f8cc30d4f8d070bb42d4
:104ac40031d07a68c4f8d0201360d4f8cc30d4f84c
:104ad400d0205a605122494607f108000cf05efdcf
:104ae400d4f8cc302bb33b60d4f8d0307b601f605b
:104af400d4f8cc305f60c4f8cc700023c4f8d43050
:104b0400ddf818802a4f07f1240a396840460cf072
:104b14005afba8b10c375745f7d1264b0495cdf86d
:104b240014909a4651e00023c4f8cc30c4f8d03035
:104b3400d0e7c4f8cc70c4f8d0703f607f60dce785
:104b4400029b082b06dd23685b6808221a49039838
:104b540098479de77b6806aa02992046984797e7fd
:104b6400049d23685b6808221349039898478fe7dc
:104b7400049d7b6806aa02992046984788e700bfef
:104b84002c2142203c1f42203412410007a0412026
:104b9400a008400030f440007c09400008084000b0
:104ba400c40840006409400038084000340940004b
:104bb400e00941005c1b4220fc08400078f44000fe
:104bc4000af1180a694b9a4534d0d0465af8147c35
:104bd400002ff5d05af8085c9db15122059923a8fd
:104be4000cf0dcfc5af8043c0093512323aa214620
:104bf4003846a84700bb082206a923a808f016fbdc
:104c04000290029b082babdc58f8147c58f8185c13
:104c1400002dd5d0ddf818904ff0000839684846cb
:104c24000cf0d1fa0028a3d008f101080c37a845ec
:104c3400f4d1c5e7049d38e7049d29e7a36904f18d
:104c44002002934273d9e06983421cd25a1ec31acc
:104c54000138517802f8011b9042fad1a269013a55
:104c6400a261e269511ee161002102f8011c04f114
:104c74007107a2693e4938460cf058f93368394641
:104c84002846984753e033683a4928469847a36929
:104c9400013ba361e369013be36148e01b23a37487
:104ca4000123238243e0e26904f12008a2eb080314
:104cb4004f2b29dca369d31a22d0d01a12f8011c75
:104cc40002f801198242f9d1e269511ce161002123
:104cd4005170a2690132284904f172000cf026f9de
:104ce400214601f8717f336828469847a3691f70ed
:104cf400a3690133a361e269934218d9e36116e021
:104d0400002384f87230ebe733681c49284698473f
:104d1400c4f81880c4f81c80336819492846984799
:104d240005e0e660e668b3689d423ff43aaea468e5
:104d3400002c3ff40bae26686568f3682846984754
:104d44000028f4d03369284698470746b4f9103050
:104d5400002b3ff433aee218907401331db2258268
:104d6400032d3ff409ae022ddcdce0e71c1c4220dd
:104d74006809400074094000880940009009400017
:044d8400640940007e
:020000040000fa
:020000040040ba
:104d88002de9f04f8fb005930023adf8363006912a
:104d9800002936d004461646b0f86220c08e217e1f
:104da8008b1edbb2022b02d9072940f0e8815eb1e5
:104db800b4f86630b34225d3b4f86830072b2ad844
:104dc800002b3cd0236f6bb352081346824228bf96
:104dd80003460793b4f86890e56e002d3dd0aa46c7
:104de8002d68002dfbd19af80c3013f0020f0cbf80
:104df80000200c20b4f86a80baf80a20424532d064
:104e0800fee7fee7a37f63f07f03a3774ff0ff3051
:104e18000fb0bde8f08fa37f63f07f03a3774ff057
:104e2800ff30f5e7e36e4bb152081346824228bfc4
:104e380003460793b4f86890e56ed0e7fee7236f62
:104e480003b1fee7e36e002bfbd152081346824202
:104e580028bf03460793b4f86890b4f86a70002f27
:104e680000f08681fee7baf80810079a521a9b00ec
:104e780003f00403d21a121a92b2b8f1000f12d03a
:104e88004346b04528bf33469bb2a8eb030080b227
:104e980010b1b04500d2fee7adf83600d21a92b292
:104ea8009846d34600e0ab46002a18bf464540f274
:104eb800e080002900f0dd80a6eb080b9345a8bf31
:104ec80093461ffa8bf7059911f0010f1cd00123a7
:104ed8000293019100940df136033946032009f03d
:104ee80089fa0990002800f03e81baf80a30bdf826
:104ef80036201344aaf80a303a46069b03eb080109
:104f080040680cf00ff90be001223946032004f049
:104f1800a3f80990002800f02681069b43444360cb
:104f28004744bfb209980cf041f900eb09031ffa96
:104f380083f9d3469fe0b5fa85f35b090293059b95
:104f4800019300940df13603079a4146002009f0b9
:104f580051fa834690b14389434506d34246069b9e
:104f6800d91940680cf0def851e0fee7fee7089832
:104f780008f014fa02e0584608f010faa37f63f02c
:104f88007f03a377099b13b1184608f007fa15b1f8
:104f980028460cf07df9b4f86830002b00f0da8070
:104fa800236f002b40f0d980e36e002b40f0d880af
:104fb800fee7fee70546b8441ffa88f7be4246d921
:104fc8009a46a6eb07081ffa88f8079b984528bf5a
:104fd8009846059b13f0010fadd1bdf83630002b74
:104fe800c4d101224146002004f036f80890002878
:104ff800c4d0069b3b44436000221146104604f08f
:105008002bf883460028b2d008990af07cfe58464f
:105018000cf0ccf800eb09031ffa83f9b9f1080f7b
:10502800a9d8e36d002200923b445946204607f078
:10503800e5fa03460028a1d0bdf836204281002dac
:10504800b8d0baf1000fb4d0caf80000b3e7ddf861
:105058002880ddf82ca09b46b8f1000f5ed0daf866
:105068000470f7b13b8943443b813b6863b13f68b7
:10507800f8e747460995be42eed90025cdf82880c5
:10508800cdf82ca0aa469ce77b8978684246069909
:1050980018440cf047f87b8943447b813f68002f14
:1050a800e0d1baf808304344aaf80830baf80a3010
:1050b800434500d2fee7a3eb0803aaf80a30bdf87f
:1050c8003630a4f86a30099b5bb1099f3946daf893
:1050d80004000af018febaf808303a891344aaf80e
:1050e8000830caf80050e36d3344e365b4f866301d
:1050f8009b1ba4f86630a4f86890b9f1000f01d0a2
:10510800236fabb1bbf1000f20d0dbf81030fbb13f
:10511800059a12f0020f0fd0002079e6bdf836305c
:10512800a4f86a30099ba3b3baf1000fcdd1fee70a
:10513800e36e002be6d1fee79c8908200cf07afa92
:10514800dbf8103004439c81002061e600205fe614
:1051580000205de64ff0ff305ae64ff0ff3057e68b
:105168004ff0ff3054e6a37f63f07f03a37712e785
:1051780046b1b8464ff0000acdf824a07de76ff09d
:105188000c0045e6bdf83630a4f86a300025ab4679
:0c519800aa46baf1000fa4d1e566a4e716
:020000040000fa
:020000040040ba
:1051a4004c2042201c000000000000002820422067
:1051b4002400000000000000b41842200001000098
:1051c40000000000f42042200c0000000000000059
:1051d40024214220080000000000000050f8412073
:1051e4000010000000000000f81e422044000000ef
:1051f40000000000641d4220800000000000000048
:105204001ce04120040000000000000007a0412031
:105214000100000000000000441b4220c000000008
:10522400000000003c1f42200400000000000000b9
:1052340044214220040000000000000050084220e5
:10524400000a0000000000002c2142200800000099
:10525400000000004821422004000000000000007b
:10526400b31842200100000000000000b4194220dd
:10527400c8000000000000000021422018000000c7
:10528400000000006822422001000000000000002d
:105294004c2142200400000000000000c41c4220f5
:1052a400a000000000000000401f42204000000059
:1052b400000000005021422008000000000000000f
:1052c400481e4220600000000000000058214220d7
:1052d4002c000000000000006820422014000000a0
:1052e40000000000842142200400000000000000af
:1052f4007c20422028000000000000008821422079
:105304000800000000000000a42042202800000043
:1053140000000000e41d42206400000000000000c2
:10532400902142200400000000000000742242206a
:10533400040000000200aaaa9421422008000000f0
:1053440000000000000040200000010000000000f8
:105354007822422004000000010000000000cdabd0
:10536400182142200a000000000000000020422012
:1053740028000000000000009c21422004000000de
:1053840000000000b01642200302000000000000ec
:105394003421422008000000000000005012422086
:1053a40060040000000000006922422001000000a7
:1053b40000000000a02142201c00000000000000aa
:1053c40008a041201440000000000000000041201b
:1053d40007a0000000000000801f422040000000e1
:1053e400000000006a2242200100000000000000ca
:1053f400bc21422008000000000000006b22422073
:105404000100000000000000c4214220040000004c
:10541400000000007c224220040000000100000083
:105424006e1900006c2242200300000000000000fe
:10543400c82142201800000000000000722242200f
:10544400020000000100000000c00000e021422032
:1054540008000000000000006f224220010000004c
:105464000000000022214220020000000000000091
:10547400702242200100000000000000e8214220c8
:105484000c00000000000000cc20422014000000aa
:1054940000000000f421422004000000000000008d
:1054a40080224220020000000100000000c0000031
:1054b400642242200200000000000000f821422083
:1054c40010000000000000006622422002000000dc
:1054d4000000000008224220080000000000000034
:1054e400e020422014000000000000003c21422083
:1054f40008000000000000001022422010000000fc
:1055040000000000041c4220c00000000000000055
:10551400202242200c0000000000000071224220e2
:1055240001000000000000007c1a4220c8000000b6
:10553400000000002c224220240000000000000093
:10554400c01f4220400000000000000020e0412075
:10555400301800000000000000f04520800000002a
:1055640002000000502242200c0000000000000055
:105574005c2242200400000000000000a81e42201b
:1055840050000000000000006022422004000000df
:10559400000000000000000000000000666666666f
:020000040000fa
:020000040040ba
:0455a40000befee760
:020000040000fa
:020000040040ba
:1055a8002de9f04f2ded0a8b92ed008b8db01e4644
:1055b800b5eec08b0b69d1f808a0cc680590f1ee68
:1055c80010fad1e9009b069307d419f0040f30d1e3
:1055d80019f008052fd0202302e02d23b1ee488bc7
:1055e80023700af1ff32012518ee903a18ee100ade
:1055f80023f00041bc4b4ff00008994208bf4045da
:105608001bd1413e192e94bfb849b94960190bf016
:10561800bdffb7480bf092fdcdf800900246534607
:105628000598214607f07cfe0db0bdec0a8bbde85d
:10563800f08f2b23d4e75246d6e780458b41a6f15d
:105648004103039308d2192b94bfaa49aa496019a8
:105658000bf09cffa848dde730216155b5ee408b83
:105668000399b7ee009b192905f101038cbf782136
:105678005821f1ee10fae15405f10205a2f10202f7
:1056880040f0ec80b0ee49bbb0ee48cbbbf1000f68
:105698009fed8fabacbf5b461823591c002700bf9a
:1056a8008cee0b0bcde90731049206f015f8bbf12f
:1056b800000f00ee4bcbdde907312bee0abb049a55
:1056c80007f1010704dab5ee40cbf1ee10fa02d08b
:1056d8008f42e5d15f1cb2ee007b2bee077bb4ee68
:1056e800c7cbf1ee10fa00f1dc80b4ee47cbf1ee57
:1056f80010fa09d1bdeec00b9fed776b10ee103a92
:1057080013f0010f06fe077b38ee078b18ee903a70
:1057180018ee10ca744923f000400023884208bfdd
:105728009c453ff46eaf06990539a942079140f2ae
:105738001481794208912e46ae461f46049300bf55
:1057480088ee090bcde90a23cdf824e005f0c4ff63
:10575800fdeec07bdde909e2b0ee40bb17ee900a32
:105768000b9b002840f0a080002b00f09d800137a3
:1057780008990bee498b013b8b4229ee0a9b03d01b
:1057880007998e42b646dbd3049bcbb9002f40f372
:10579800e580bbf1000f40f3e18019f0010f40f004
:1057a800dd80a3192e211970b9192144302000bfba
:1057b80003f8010f8b42fbd13e44ff4301363a44c4
:1057c800069b0021a019013b88450170b8bfc8f1ac
:1057d8000008e1544ff00107b8bf01214ff00a0b50
:1057e80003f1ff3cb8f1000f40f0a580012f00f055
:1057f800a28000290cbf2b212d2104f80c1003993d
:10580800023b192904eb03018cbf4ff0700c4ff0d9
:10581800500c9e4281f800c003da03920bf0b6feea
:10582800039a09f00303022b11d11744033f002ff9
:105838000ddd20460bf082fce319a84280f2898036
:105848003a46302160190bf041fd4ff0000a20461e
:10585800e0e600bf08f10108b0ee479b39ee097b8e
:10586800b4eec78bf1ee10faf4d5b6ee007b9feddf
:105878001c6b00bfb4eec98bf1ee10fa7ff502afd6
:1058880029ee075bb5ee405bf1ee10fa08bf29ee92
:10589800069b08f1ff3808bf28ee068b29ee079b08
:1058a800e8e79fed0d7b2fe7049941b93bb14ff035
:1058b8002e0c012104f80ec00136013a0491e119b9
:1058c80004eb060c31444ff0300e19e0aff30080c2
:1058d800000000000000b03f0000000000000000d1
:1058e80000000000000050430000f07f000d410060
:1058f800040d4100080d41000c0d41000cf801ebae
:105908008c45fbd1f119d71b039a0928d4bf303035
:105918005730192a0ad840f02002613a192a05d8c6
:10592800cde909310bf0b0fddde909317a1e60548b
:105938004e1c00271ce7634698fbfbfe0eeb8e0c03
:10594800a8eb4c0c0cf1300c04f803c0f046013ff6
:1059580046e7225c1a5401386fe72e4619f0100ffb
:0c5968003ff42eaf2e23a355013629e793
:020000040000fa
:020000040040ba
:0459740000befee78c
:020000040000fa
:020000040040ba
:105978002de9f04f2ded0a8b92ed009b8fb0b5ee1f
:10598800c09b05938b680493f1ee10fa0b69cd6800
:105998000690d1e900a78b46089308d41af0040fa3
:1059a80034d11af00803039332d0202302e02d23c8
:1059b800b1ee499b2b70049b03f1ff39012303933c
:1059c80019ee903a19ee101a23f00042c04b002449
:1059d8009a4208bfa1421ed1059b0398413b192b4f
:1059e80094bfbc49bc4928440bf0d0fd28460bf0b5
